{
  "contractName": "ethTransfer",
  "abi": [
    {
      "inputs": [],
      "stateMutability": "nonpayable",
      "type": "constructor"
    },
    {
      "inputs": [],
      "name": "amount",
      "outputs": [
        {
          "internalType": "uint256",
          "name": "",
          "type": "uint256"
        }
      ],
      "stateMutability": "view",
      "type": "function",
      "constant": true
    },
    {
      "inputs": [
        {
          "internalType": "uint256",
          "name": "_amount",
          "type": "uint256"
        }
      ],
      "name": "setAmount",
      "outputs": [],
      "stateMutability": "nonpayable",
      "type": "function"
    },
    {
      "inputs": [
        {
          "internalType": "address payable",
          "name": "receiver",
          "type": "address"
        }
      ],
      "name": "sendEth",
      "outputs": [],
      "stateMutability": "payable",
      "type": "function",
      "payable": true
    }
  ],
  "bytecode": "0x608060405234801561001057600080fd5b5033600160006101000a81548173ffffffffffffffffffffffffffffffffffffffff021916908373ffffffffffffffffffffffffffffffffffffffff16021790555061036c806100616000396000f3fe6080604052600436106100345760003560e01c8063271f88b41461003957806376a54c6014610062578063aa8c217c1461007e575b600080fd5b34801561004557600080fd5b50610060600480360381019061005b91906101d7565b6100a9565b005b61007c60048036038101906100779190610262565b6100b3565b005b34801561008a57600080fd5b50610093610196565b6040516100a0919061029e565b60405180910390f35b8060008190555050565b3373ffffffffffffffffffffffffffffffffffffffff16600160009054906101000a900473ffffffffffffffffffffffffffffffffffffffff1673ffffffffffffffffffffffffffffffffffffffff1614610143576040517f08c379a000000000000000000000000000000000000000000000000000000000815260040161013a90610316565b60405180910390fd5b346000819055508073ffffffffffffffffffffffffffffffffffffffff166108fc6000549081150290604051600060405180830381858888f19350505050158015610192573d6000803e3d6000fd5b5050565b60005481565b600080fd5b6000819050919050565b6101b4816101a1565b81146101bf57600080fd5b50565b6000813590506101d1816101ab565b92915050565b6000602082840312156101ed576101ec61019c565b5b60006101fb848285016101c2565b91505092915050565b600073ffffffffffffffffffffffffffffffffffffffff82169050919050565b600061022f82610204565b9050919050565b61023f81610224565b811461024a57600080fd5b50565b60008135905061025c81610236565b92915050565b6000602082840312156102785761027761019c565b5b60006102868482850161024d565b91505092915050565b610298816101a1565b82525050565b60006020820190506102b3600083018461028f565b92915050565b600082825260208201905092915050565b7f6f6e6c79206f776e65722063616e2073656e6420657468000000000000000000600082015250565b60006103006017836102b9565b915061030b826102ca565b602082019050919050565b6000602082019050818103600083015261032f816102f3565b905091905056fea2646970667358221220ecdde6dba210b012423edf9ed0d56d31d4a24d5ab11e3c974e708e1cc3784bb864736f6c634300080d0033",
  "immutableReferences": {},
  "source": "pragma solidity >0.4.1;\r\n\r\ncontract ethTransfer {\r\n    // uint256 public totalTips;\r\n    // address payable owner;\r\n\r\n    // struct Tip {\r\n    //     address sender;\r\n    //     string message;\r\n    //     string name;\r\n    //     uint256 timestamp;\r\n    //     uint256 amount;\r\n    // }\r\n\r\n    // Tip[] tips;\r\n\r\n    // constructor(){\r\n    //     owner = payable(msg.sender);\r\n    // }\r\n\r\n    // function getTotalTips() public view returns(uint){\r\n    //     return totalTips;\r\n    // }\r\n\r\n    // function sendTip(string memory _message, string memory _name) public payable {\r\n    //     require(msg.sender.balance >= msg.value, \"you dont have enough funds\");\r\n    //     (bool success, ) = owner.call{value: msg.value}('');\r\n    //     require(success, 'Transfer failed');\r\n    //     totalTips += 1;\r\n    //     tips.push(Tip(msg.sender, _message, _name, block.timestamp, msg.value));\r\n    // }\r\n\r\n    // function getAllTips() public view returns (Tip[] memory){\r\n    //     return tips;\r\n    // }\r\n\r\n\r\n\r\n    uint public amount;\r\n    address payable owner;\r\n    constructor(){\r\n        owner = payable(msg.sender);\r\n    }\r\n\r\n    function setAmount(uint _amount) public{\r\n        amount = _amount;\r\n    }\r\n\r\n    function sendEth(address payable receiver) payable public {\r\n        require(owner == msg.sender, \"only owner can send eth\");\r\n        amount = msg.value;\r\n        receiver.transfer(amount);\r\n    }\r\n\r\n\r\n}",
  "sourcePath": "C:\\Users\\Felabs\\Desktop\\web3\\contracts\\ethtransfer.sol",
  "compiler": {
    "name": "solc",
    "version": "0.8.13+commit.abaa5c0e.Emscripten.clang"
  },
  "schemaVersion": "3.4.13",
  "updatedAt": "2023-04-10T16:27:33.939Z",
  "networkType": "ethereum",
  "devdoc": {
    "kind": "dev",
    "methods": {},
    "version": 1
  },
  "userdoc": {
    "kind": "user",
    "methods": {},
    "version": 1
  }
}