{
  "contractName": "HelloWorld",
  "abi": [
    {
      "inputs": [],
      "name": "createRandomNumber",
      "outputs": [
        {
          "internalType": "uint256",
          "name": "",
          "type": "uint256"
        }
      ],
      "stateMutability": "nonpayable",
      "type": "function"
    },
    {
      "inputs": [],
      "name": "getRandomNumber",
      "outputs": [
        {
          "internalType": "address",
          "name": "",
          "type": "address"
        }
      ],
      "stateMutability": "view",
      "type": "function",
      "constant": true
    },
    {
      "inputs": [
        {
          "internalType": "uint256",
          "name": "number",
          "type": "uint256"
        }
      ],
      "name": "random",
      "outputs": [
        {
          "internalType": "uint256",
          "name": "",
          "type": "uint256"
        }
      ],
      "stateMutability": "view",
      "type": "function",
      "constant": true
    }
  ],
  "bytecode": "0x608060405234801561001057600080fd5b506103b2806100206000396000f3fe608060405234801561001057600080fd5b50600436106100415760003560e01c80635f51d77814610046578063b863bd3714610064578063dbdff2c114610094575b600080fd5b61004e6100b2565b60405161005b919061013e565b60405180910390f35b61007e6004803603810190610079919061018a565b6100db565b60405161008b919061013e565b60405180910390f35b61009c61011d565b6040516100a991906101f8565b60405180910390f35b6000610e106001436100c49190610242565b4060001c6100d291906102a5565b60008190555090565b6000814244336040516020016100f39392919061033f565b6040516020818303038152906040528051906020012060001c61011691906102a5565b9050919050565b600030905090565b6000819050919050565b61013881610125565b82525050565b6000602082019050610153600083018461012f565b92915050565b600080fd5b61016781610125565b811461017257600080fd5b50565b6000813590506101848161015e565b92915050565b6000602082840312156101a05761019f610159565b5b60006101ae84828501610175565b91505092915050565b600073ffffffffffffffffffffffffffffffffffffffff82169050919050565b60006101e2826101b7565b9050919050565b6101f2816101d7565b82525050565b600060208201905061020d60008301846101e9565b92915050565b7f4e487b7100000000000000000000000000000000000000000000000000000000600052601160045260246000fd5b600061024d82610125565b915061025883610125565b92508282101561026b5761026a610213565b5b828203905092915050565b7f4e487b7100000000000000000000000000000000000000000000000000000000600052601260045260246000fd5b60006102b082610125565b91506102bb83610125565b9250826102cb576102ca610276565b5b828206905092915050565b6000819050919050565b6102f16102ec82610125565b6102d6565b82525050565b60008160601b9050919050565b600061030f826102f7565b9050919050565b600061032182610304565b9050919050565b610339610334826101d7565b610316565b82525050565b600061034b82866102e0565b60208201915061035b82856102e0565b60208201915061036b8284610328565b60148201915081905094935050505056fea264697066735822122098ba1d51dd66e168740759b621374ecf91534f7160fd4d4540c8e67bbecb4ae064736f6c634300080d0033",
  "immutableReferences": {},
  "source": "pragma solidity >=0.4.1;\r\n\r\ncontract HelloWorld {\r\n    \r\n    uint initialNumber;\r\n    uint trans;\r\n\r\n    \r\n\r\n    function createRandomNumber()public returns(uint){\r\n\r\n        initialNumber = uint(blockhash(block.number - 1)) % 3600;\r\n    }\r\n\r\n   function getRandomNumber()public view returns(address){\r\n    return address(this);\r\n   }\r\n\r\n    function random(uint number) public view returns(uint){\r\n        return uint(keccak256(abi.encodePacked(block.timestamp, block.difficulty, msg.sender))) % number;\r\n    }\r\n\r\n     \r\n}",
  "sourcePath": "C:\\Users\\Felabs\\Desktop\\web3\\contracts\\logic.sol",
  "compiler": {
    "name": "solc",
    "version": "0.8.13+commit.abaa5c0e.Emscripten.clang"
  },
  "schemaVersion": "3.4.13",
  "updatedAt": "2023-05-20T09:59:01.436Z",
  "networkType": "ethereum",
  "devdoc": {
    "kind": "dev",
    "methods": {},
    "version": 1
  },
  "userdoc": {
    "kind": "user",
    "methods": {},
    "version": 1
  }
}