{
  "contractName": "logicalOperation",
  "abi": [
    {
      "inputs": [],
      "name": "a",
      "outputs": [
        {
          "internalType": "bool",
          "name": "",
          "type": "bool"
        }
      ],
      "stateMutability": "view",
      "type": "function",
      "constant": true
    },
    {
      "inputs": [],
      "name": "b",
      "outputs": [
        {
          "internalType": "bool",
          "name": "",
          "type": "bool"
        }
      ],
      "stateMutability": "view",
      "type": "function",
      "constant": true
    },
    {
      "inputs": [],
      "name": "aAndB",
      "outputs": [
        {
          "internalType": "bool",
          "name": "",
          "type": "bool"
        }
      ],
      "stateMutability": "view",
      "type": "function",
      "constant": true
    },
    {
      "inputs": [],
      "name": "aOrB",
      "outputs": [
        {
          "internalType": "bool",
          "name": "",
          "type": "bool"
        }
      ],
      "stateMutability": "view",
      "type": "function",
      "constant": true
    },
    {
      "inputs": [],
      "name": "notA",
      "outputs": [
        {
          "internalType": "bool",
          "name": "",
          "type": "bool"
        }
      ],
      "stateMutability": "view",
      "type": "function",
      "constant": true
    },
    {
      "inputs": [],
      "name": "notB",
      "outputs": [
        {
          "internalType": "bool",
          "name": "",
          "type": "bool"
        }
      ],
      "stateMutability": "view",
      "type": "function",
      "constant": true
    }
  ],
  "bytecode": "0x608060405260016000806101000a81548160ff02191690831515021790555060008060016101000a81548160ff02191690831515021790555034801561004457600080fd5b50610234806100546000396000f3fe608060405234801561001057600080fd5b50600436106100625760003560e01c80630dbe671f146100675780632d4f2942146100855780634df7e3d0146100a3578063685044d6146100c1578063cffd9805146100df578063f3fd4090146100fd575b600080fd5b61006f61011b565b60405161007c91906101e3565b60405180910390f35b61008d61012c565b60405161009a91906101e3565b60405180910390f35b6100ab610143565b6040516100b891906101e3565b60405180910390f35b6100c9610156565b6040516100d691906101e3565b60405180910390f35b6100e7610184565b6040516100f491906101e3565b60405180910390f35b61010561019b565b60405161011291906101e3565b60405180910390f35b60008054906101000a900460ff1681565b60008060009054906101000a900460ff1615905090565b600060019054906101000a900460ff1681565b60008060009054906101000a900460ff16801561017f5750600060019054906101000a900460ff165b905090565b60008060019054906101000a900460ff1615905090565b60008060009054906101000a900460ff16806101c35750600060019054906101000a900460ff165b905090565b60008115159050919050565b6101dd816101c8565b82525050565b60006020820190506101f860008301846101d4565b9291505056fea2646970667358221220a6c229107312b3980005f45921f6f07624423d07fd4c97075fc9ba910584a63664736f6c634300080d0033",
  "immutableReferences": {},
  "source": "pragma solidity >=0.4.1;\r\n\r\ncontract logicalOperation {\r\n    bool public a = true;\r\n    bool public b = false;\r\n\r\n    function aAndB() public view returns(bool){\r\n        return a && b;\r\n    }\r\n\r\n    function aOrB() public view returns(bool){\r\n        return a || b;\r\n    }\r\n\r\n    function notA() public view returns(bool){\r\n        return !a;\r\n    }\r\n\r\n    function notB() public view returns(bool){\r\n        return !b;\r\n    }\r\n}",
  "sourcePath": "C:\\Users\\Felabs\\Desktop\\web3\\contracts\\logic.sol",
  "compiler": {
    "name": "solc",
    "version": "0.8.13+commit.abaa5c0e.Emscripten.clang"
  },
  "schemaVersion": "3.4.13",
  "updatedAt": "2023-04-08T16:13:53.652Z",
  "networkType": "ethereum",
  "devdoc": {
    "kind": "dev",
    "methods": {},
    "version": 1
  },
  "userdoc": {
    "kind": "user",
    "methods": {},
    "version": 1
  }
}