{
  "contractName": "Main",
  "abi": [
    {
      "inputs": [],
      "stateMutability": "nonpayable",
      "type": "constructor"
    },
    {
      "stateMutability": "payable",
      "type": "fallback"
    },
    {
      "inputs": [
        {
          "internalType": "uint256",
          "name": "",
          "type": "uint256"
        }
      ],
      "name": "activeBets",
      "outputs": [
        {
          "internalType": "address",
          "name": "accountId",
          "type": "address"
        },
        {
          "internalType": "uint256",
          "name": "betId",
          "type": "uint256"
        }
      ],
      "stateMutability": "view",
      "type": "function"
    },
    {
      "inputs": [],
      "name": "activeBetsCount",
      "outputs": [
        {
          "internalType": "uint256",
          "name": "",
          "type": "uint256"
        }
      ],
      "stateMutability": "view",
      "type": "function"
    },
    {
      "inputs": [
        {
          "internalType": "address",
          "name": "",
          "type": "address"
        },
        {
          "internalType": "uint256",
          "name": "",
          "type": "uint256"
        }
      ],
      "name": "arraySpins",
      "outputs": [
        {
          "internalType": "uint256",
          "name": "betId",
          "type": "uint256"
        },
        {
          "internalType": "string",
          "name": "betResult",
          "type": "string"
        },
        {
          "internalType": "string",
          "name": "gamingOdds",
          "type": "string"
        },
        {
          "internalType": "uint256",
          "name": "possiblePayout",
          "type": "uint256"
        },
        {
          "internalType": "uint256",
          "name": "deposit",
          "type": "uint256"
        },
        {
          "internalType": "bool",
          "name": "withdrawn",
          "type": "bool"
        },
        {
          "internalType": "uint256",
          "name": "timestamp",
          "type": "uint256"
        }
      ],
      "stateMutability": "view",
      "type": "function"
    },
    {
      "inputs": [],
      "name": "betCount",
      "outputs": [
        {
          "internalType": "uint256",
          "name": "",
          "type": "uint256"
        }
      ],
      "stateMutability": "view",
      "type": "function"
    },
    {
      "inputs": [
        {
          "internalType": "string",
          "name": "a",
          "type": "string"
        },
        {
          "internalType": "string",
          "name": "b",
          "type": "string"
        }
      ],
      "name": "compareBets",
      "outputs": [
        {
          "internalType": "bool",
          "name": "",
          "type": "bool"
        }
      ],
      "stateMutability": "pure",
      "type": "function"
    },
    {
      "inputs": [
        {
          "internalType": "address",
          "name": "",
          "type": "address"
        }
      ],
      "name": "customers",
      "outputs": [
        {
          "internalType": "address",
          "name": "customerAccountId",
          "type": "address"
        },
        {
          "internalType": "string",
          "name": "name",
          "type": "string"
        }
      ],
      "stateMutability": "view",
      "type": "function"
    },
    {
      "inputs": [
        {
          "internalType": "uint256",
          "name": "",
          "type": "uint256"
        }
      ],
      "name": "eventGames",
      "outputs": [
        {
          "internalType": "uint256",
          "name": "eventId",
          "type": "uint256"
        },
        {
          "internalType": "string",
          "name": "homeTeam",
          "type": "string"
        },
        {
          "internalType": "string",
          "name": "awayTeam",
          "type": "string"
        },
        {
          "internalType": "uint256",
          "name": "homeGoals",
          "type": "uint256"
        },
        {
          "internalType": "uint256",
          "name": "awayGoals",
          "type": "uint256"
        },
        {
          "internalType": "uint256",
          "name": "dateTime",
          "type": "uint256"
        },
        {
          "internalType": "uint256",
          "name": "matchFinished",
          "type": "uint256"
        }
      ],
      "stateMutability": "view",
      "type": "function"
    },
    {
      "inputs": [
        {
          "internalType": "address",
          "name": "_accountId",
          "type": "address"
        }
      ],
      "name": "getArraySpins",
      "outputs": [
        {
          "components": [
            {
              "internalType": "uint256",
              "name": "betId",
              "type": "uint256"
            },
            {
              "internalType": "string",
              "name": "betResult",
              "type": "string"
            },
            {
              "internalType": "string",
              "name": "gamingOdds",
              "type": "string"
            },
            {
              "internalType": "uint256",
              "name": "possiblePayout",
              "type": "uint256"
            },
            {
              "internalType": "uint256",
              "name": "deposit",
              "type": "uint256"
            },
            {
              "internalType": "bool",
              "name": "withdrawn",
              "type": "bool"
            },
            {
              "internalType": "uint256",
              "name": "timestamp",
              "type": "uint256"
            }
          ],
          "internalType": "struct Operations.SpinAndWin[]",
          "name": "",
          "type": "tuple[]"
        }
      ],
      "stateMutability": "view",
      "type": "function"
    },
    {
      "inputs": [],
      "name": "getBalance",
      "outputs": [
        {
          "internalType": "uint256",
          "name": "",
          "type": "uint256"
        }
      ],
      "stateMutability": "view",
      "type": "function"
    },
    {
      "inputs": [
        {
          "internalType": "address",
          "name": "",
          "type": "address"
        },
        {
          "internalType": "uint256",
          "name": "",
          "type": "uint256"
        }
      ],
      "name": "justTrackBets",
      "outputs": [
        {
          "internalType": "uint256",
          "name": "betId",
          "type": "uint256"
        },
        {
          "internalType": "bool",
          "name": "betFinished",
          "type": "bool"
        },
        {
          "internalType": "bool",
          "name": "betWon",
          "type": "bool"
        },
        {
          "internalType": "uint256",
          "name": "deposit",
          "type": "uint256"
        },
        {
          "internalType": "string",
          "name": "totalOdds",
          "type": "string"
        },
        {
          "internalType": "uint256",
          "name": "possiblePayout",
          "type": "uint256"
        },
        {
          "internalType": "uint256",
          "name": "timestamp",
          "type": "uint256"
        }
      ],
      "stateMutability": "view",
      "type": "function"
    },
    {
      "inputs": [
        {
          "internalType": "uint256",
          "name": "",
          "type": "uint256"
        },
        {
          "internalType": "uint256",
          "name": "",
          "type": "uint256"
        }
      ],
      "name": "nextVirtualGame",
      "outputs": [
        {
          "internalType": "uint256",
          "name": "eventId",
          "type": "uint256"
        },
        {
          "internalType": "string",
          "name": "homeTeam",
          "type": "string"
        },
        {
          "internalType": "string",
          "name": "awayTeam",
          "type": "string"
        },
        {
          "internalType": "uint256",
          "name": "homeGoals",
          "type": "uint256"
        },
        {
          "internalType": "uint256",
          "name": "awayGoals",
          "type": "uint256"
        },
        {
          "internalType": "uint256",
          "name": "dateTime",
          "type": "uint256"
        },
        {
          "internalType": "uint256",
          "name": "matchFinished",
          "type": "uint256"
        }
      ],
      "stateMutability": "view",
      "type": "function"
    },
    {
      "inputs": [
        {
          "internalType": "address",
          "name": "",
          "type": "address"
        },
        {
          "internalType": "uint256",
          "name": "",
          "type": "uint256"
        },
        {
          "internalType": "uint256",
          "name": "",
          "type": "uint256"
        }
      ],
      "name": "normalbets",
      "outputs": [
        {
          "internalType": "uint256",
          "name": "matchId",
          "type": "uint256"
        },
        {
          "internalType": "string",
          "name": "teamNames",
          "type": "string"
        },
        {
          "internalType": "string",
          "name": "category",
          "type": "string"
        },
        {
          "internalType": "string",
          "name": "pick",
          "type": "string"
        },
        {
          "internalType": "string",
          "name": "outcome",
          "type": "string"
        },
        {
          "internalType": "bool",
          "name": "won",
          "type": "bool"
        }
      ],
      "stateMutability": "view",
      "type": "function"
    },
    {
      "inputs": [
        {
          "components": [
            {
              "internalType": "uint256",
              "name": "matchId",
              "type": "uint256"
            },
            {
              "internalType": "string",
              "name": "teamNames",
              "type": "string"
            },
            {
              "internalType": "string",
              "name": "category",
              "type": "string"
            },
            {
              "internalType": "string",
              "name": "pick",
              "type": "string"
            },
            {
              "internalType": "string",
              "name": "outcome",
              "type": "string"
            },
            {
              "internalType": "bool",
              "name": "won",
              "type": "bool"
            }
          ],
          "internalType": "struct Operations.miniBets[]",
          "name": "minibet",
          "type": "tuple[]"
        },
        {
          "internalType": "uint256",
          "name": "_deposit",
          "type": "uint256"
        },
        {
          "internalType": "string",
          "name": "_totalOdds",
          "type": "string"
        },
        {
          "internalType": "uint256",
          "name": "_possiblePayout",
          "type": "uint256"
        }
      ],
      "name": "placeNormalBet",
      "outputs": [
        {
          "internalType": "string",
          "name": "",
          "type": "string"
        }
      ],
      "stateMutability": "payable",
      "type": "function"
    },
    {
      "inputs": [
        {
          "internalType": "string",
          "name": "_name",
          "type": "string"
        }
      ],
      "name": "registerCustomer",
      "outputs": [],
      "stateMutability": "nonpayable",
      "type": "function"
    },
    {
      "inputs": [
        {
          "internalType": "uint256",
          "name": "_eventId",
          "type": "uint256"
        },
        {
          "internalType": "string",
          "name": "_homeTeam",
          "type": "string"
        },
        {
          "internalType": "string",
          "name": "_awayTeam",
          "type": "string"
        },
        {
          "internalType": "uint256",
          "name": "_homeGoals",
          "type": "uint256"
        },
        {
          "internalType": "uint256",
          "name": "_awayGoals",
          "type": "uint256"
        },
        {
          "internalType": "uint256",
          "name": "_dateTime",
          "type": "uint256"
        },
        {
          "internalType": "uint256",
          "name": "_matchFinished",
          "type": "uint256"
        }
      ],
      "name": "registerEventGame",
      "outputs": [],
      "stateMutability": "nonpayable",
      "type": "function"
    },
    {
      "inputs": [
        {
          "components": [
            {
              "internalType": "uint256",
              "name": "eventId",
              "type": "uint256"
            },
            {
              "internalType": "string",
              "name": "homeTeam",
              "type": "string"
            },
            {
              "internalType": "string",
              "name": "awayTeam",
              "type": "string"
            },
            {
              "internalType": "uint256",
              "name": "homeGoals",
              "type": "uint256"
            },
            {
              "internalType": "uint256",
              "name": "awayGoals",
              "type": "uint256"
            },
            {
              "internalType": "uint256",
              "name": "dateTime",
              "type": "uint256"
            },
            {
              "internalType": "uint256",
              "name": "matchFinished",
              "type": "uint256"
            }
          ],
          "internalType": "struct Operations.EventGame[]",
          "name": "_eventGames",
          "type": "tuple[]"
        }
      ],
      "name": "registerMultipleEventGames",
      "outputs": [],
      "stateMutability": "nonpayable",
      "type": "function"
    },
    {
      "inputs": [
        {
          "components": [
            {
              "internalType": "uint256",
              "name": "eventId",
              "type": "uint256"
            },
            {
              "internalType": "string",
              "name": "homeTeam",
              "type": "string"
            },
            {
              "internalType": "string",
              "name": "awayTeam",
              "type": "string"
            },
            {
              "internalType": "uint256",
              "name": "homeGoals",
              "type": "uint256"
            },
            {
              "internalType": "uint256",
              "name": "awayGoals",
              "type": "uint256"
            },
            {
              "internalType": "uint256",
              "name": "dateTime",
              "type": "uint256"
            },
            {
              "internalType": "uint256",
              "name": "matchFinished",
              "type": "uint256"
            }
          ],
          "internalType": "struct Operations.EventGame[]",
          "name": "_eventGames",
          "type": "tuple[]"
        },
        {
          "internalType": "uint256",
          "name": "_time",
          "type": "uint256"
        }
      ],
      "name": "registerNextVirtualGame",
      "outputs": [],
      "stateMutability": "nonpayable",
      "type": "function"
    },
    {
      "inputs": [
        {
          "internalType": "address payable",
          "name": "_recipient",
          "type": "address"
        }
      ],
      "name": "sendEther",
      "outputs": [],
      "stateMutability": "nonpayable",
      "type": "function"
    },
    {
      "inputs": [],
      "name": "spinAndWinCount",
      "outputs": [
        {
          "internalType": "uint256",
          "name": "",
          "type": "uint256"
        }
      ],
      "stateMutability": "view",
      "type": "function"
    },
    {
      "inputs": [
        {
          "internalType": "string",
          "name": "_betResult",
          "type": "string"
        },
        {
          "internalType": "string",
          "name": "_gamingOdds",
          "type": "string"
        },
        {
          "internalType": "uint256",
          "name": "_deposit",
          "type": "uint256"
        },
        {
          "internalType": "uint256",
          "name": "_winnings",
          "type": "uint256"
        }
      ],
      "name": "stakeSpinAndWin",
      "outputs": [
        {
          "internalType": "string",
          "name": "",
          "type": "string"
        }
      ],
      "stateMutability": "payable",
      "type": "function"
    },
    {
      "inputs": [
        {
          "internalType": "address",
          "name": "_accountId",
          "type": "address"
        },
        {
          "internalType": "uint256",
          "name": "_betId",
          "type": "uint256"
        }
      ],
      "name": "verifyWon",
      "outputs": [],
      "stateMutability": "nonpayable",
      "type": "function"
    },
    {
      "inputs": [
        {
          "internalType": "address",
          "name": "_accountId",
          "type": "address"
        },
        {
          "internalType": "uint256",
          "name": "_betId",
          "type": "uint256"
        }
      ],
      "name": "viewNormalBets",
      "outputs": [
        {
          "components": [
            {
              "internalType": "uint256",
              "name": "matchId",
              "type": "uint256"
            },
            {
              "internalType": "string",
              "name": "teamNames",
              "type": "string"
            },
            {
              "internalType": "string",
              "name": "category",
              "type": "string"
            },
            {
              "internalType": "string",
              "name": "pick",
              "type": "string"
            },
            {
              "internalType": "string",
              "name": "outcome",
              "type": "string"
            },
            {
              "internalType": "bool",
              "name": "won",
              "type": "bool"
            }
          ],
          "internalType": "struct Operations.miniBets[]",
          "name": "",
          "type": "tuple[]"
        }
      ],
      "stateMutability": "view",
      "type": "function"
    },
    {
      "inputs": [
        {
          "internalType": "address",
          "name": "_accountId",
          "type": "address"
        }
      ],
      "name": "viewTrackedBets",
      "outputs": [
        {
          "components": [
            {
              "internalType": "uint256",
              "name": "betId",
              "type": "uint256"
            },
            {
              "internalType": "bool",
              "name": "betFinished",
              "type": "bool"
            },
            {
              "internalType": "bool",
              "name": "betWon",
              "type": "bool"
            },
            {
              "internalType": "uint256",
              "name": "deposit",
              "type": "uint256"
            },
            {
              "internalType": "string",
              "name": "totalOdds",
              "type": "string"
            },
            {
              "internalType": "uint256",
              "name": "possiblePayout",
              "type": "uint256"
            },
            {
              "internalType": "uint256",
              "name": "timestamp",
              "type": "uint256"
            }
          ],
          "internalType": "struct Operations.NormalBet[]",
          "name": "",
          "type": "tuple[]"
        }
      ],
      "stateMutability": "view",
      "type": "function"
    },
    {
      "inputs": [
        {
          "internalType": "uint256",
          "name": "_betId",
          "type": "uint256"
        }
      ],
      "name": "withdrawArraySpinFunds",
      "outputs": [],
      "stateMutability": "nonpayable",
      "type": "function"
    },
    {
      "stateMutability": "payable",
      "type": "receive"
    }
  ],
  "bytecode": "0x608060405234801561001057600080fd5b5061688180620000216000396000f3fe60806040526004361061014f5760003560e01c806348c981e2116100b6578063af768ee31161006f578063af768ee31461050c578063b8c56ff01461054a578063c53da48114610573578063cf094497146105b0578063d5da04b8146105db578063e4df829e1461060457610156565b806348c981e2146103cc57806363cfedb0146103f55780636787e39a1461043857806370f477971461046357806376f755521461048c578063805ad5cc146104c957610156565b80632a1e6ac8116101085780632a1e6ac8146102855780632a2f27d9146102ae578063336989ae146102de578063364f77dd1461031c5780633a5d4b861461035f5780634393b4171461038f57610156565b806304c63ab41461015857806310c3122a1461019b57806312065fe0146101dd5780631378d806146102085780631cd6efce14610231578063280160591461025a57610156565b3661015657005b005b34801561016457600080fd5b5061017f600480360381019061017a9190615303565b610641565b6040516101929796959493929190615406565b60405180910390f35b3480156101a757600080fd5b506101c260048036038101906101bd9190615483565b6107bd565b6040516101d4969594939291906154d6565b60405180910390f35b3480156101e957600080fd5b506101f2610a50565b6040516101ff9190615553565b60405180910390f35b34801561021457600080fd5b5061022f600480360381019061022a91906156a3565b610a58565b005b34801561023d57600080fd5b5061025860048036038101906102539190615303565b610b32565b005b34801561026657600080fd5b5061026f61375a565b60405161027c9190615553565b60405180910390f35b34801561029157600080fd5b506102ac60048036038101906102a791906158c8565b613760565b005b6102c860048036038101906102c39190615b41565b613933565b6040516102d59190615be0565b60405180910390f35b3480156102ea57600080fd5b5061030560048036038101906103009190615c02565b613dff565b604051610313929190615c3e565b60405180910390f35b34801561032857600080fd5b50610343600480360381019061033e9190615c6e565b613ecb565b6040516103569796959493929190615c9b565b60405180910390f35b61037960048036038101906103749190615d18565b61401d565b6040516103869190615be0565b60405180910390f35b34801561039b57600080fd5b506103b660048036038101906103b19190615db7565b6142a1565b6040516103c39190615e2f565b60405180910390f35b3480156103d857600080fd5b506103f360048036038101906103ee9190615e88565b6142bc565b005b34801561040157600080fd5b5061041c60048036038101906104179190615303565b61430e565b60405161042f9796959493929190615eb5565b60405180910390f35b34801561044457600080fd5b5061044d61440f565b60405161045a9190615553565b60405180910390f35b34801561046f57600080fd5b5061048a60048036038101906104859190615f2b565b614415565b005b34801561049857600080fd5b506104b360048036038101906104ae9190615c02565b6145dd565b6040516104c0919061613a565b60405180910390f35b3480156104d557600080fd5b506104f060048036038101906104eb919061615c565b61476b565b6040516105039796959493929190615c9b565b60405180910390f35b34801561051857600080fd5b50610533600480360381019061052e9190615c6e565b6148da565b60405161054192919061619c565b60405180910390f35b34801561055657600080fd5b50610571600480360381019061056c91906161c5565b61491e565b005b34801561057f57600080fd5b5061059a60048036038101906105959190615303565b6149dc565b6040516105a791906163ff565b60405180910390f35b3480156105bc57600080fd5b506105c5614cf9565b6040516105d29190615553565b60405180910390f35b3480156105e757600080fd5b5061060260048036038101906105fd9190615c6e565b614cff565b005b34801561061057600080fd5b5061062b60048036038101906106269190615c02565b614fb3565b6040516106389190616586565b60405180910390f35b6004602052816000526040600020818154811061065d57600080fd5b906000526020600020906007020160009150915050806000015490806001018054610687906165d7565b80601f01602080910402602001604051908101604052809291908181526020018280546106b3906165d7565b80156107005780601f106106d557610100808354040283529160200191610700565b820191906000526020600020905b8154815290600101906020018083116106e357829003601f168201915b505050505090806002018054610715906165d7565b80601f0160208091040260200160405190810160405280929190818152602001828054610741906165d7565b801561078e5780601f106107635761010080835404028352916020019161078e565b820191906000526020600020905b81548152906001019060200180831161077157829003601f168201915b5050505050908060030154908060040154908060050160009054906101000a900460ff16908060060154905087565b600560205282600052604060002060205281600052604060002081815481106107e557600080fd5b90600052602060002090600602016000925092505050806000015490806001018054610810906165d7565b80601f016020809104026020016040519081016040528092919081815260200182805461083c906165d7565b80156108895780601f1061085e57610100808354040283529160200191610889565b820191906000526020600020905b81548152906001019060200180831161086c57829003601f168201915b50505050509080600201805461089e906165d7565b80601f01602080910402602001604051908101604052809291908181526020018280546108ca906165d7565b80156109175780601f106108ec57610100808354040283529160200191610917565b820191906000526020600020905b8154815290600101906020018083116108fa57829003601f168201915b50505050509080600301805461092c906165d7565b80601f0160208091040260200160405190810160405280929190818152602001828054610958906165d7565b80156109a55780601f1061097a576101008083540402835291602001916109a5565b820191906000526020600020905b81548152906001019060200180831161098857829003601f168201915b5050505050908060040180546109ba906165d7565b80601f01602080910402602001604051908101604052809291908181526020018280546109e6906165d7565b8015610a335780601f10610a0857610100808354040283529160200191610a33565b820191906000526020600020905b815481529060010190602001808311610a1657829003601f168201915b5050505050908060050160009054906101000a900460ff16905086565b600047905090565b600033905060405180604001604052808273ffffffffffffffffffffffffffffffffffffffff16815260200183815250600360008373ffffffffffffffffffffffffffffffffffffffff1673ffffffffffffffffffffffffffffffffffffffff16815260200190815260200160002060008201518160000160006101000a81548173ffffffffffffffffffffffffffffffffffffffff021916908373ffffffffffffffffffffffffffffffffffffffff1602179055506020820151816001019080519060200190610b2a9291906151b8565b509050505050565b6000600560008473ffffffffffffffffffffffffffffffffffffffff1673ffffffffffffffffffffffffffffffffffffffff16815260200190815260200160002060008381526020019081526020016000208054905090506000600560008573ffffffffffffffffffffffffffffffffffffffff1673ffffffffffffffffffffffffffffffffffffffff1681526020019081526020016000206000848152602001908152602001600020805490509050600080600090505b8381108015610c825750600160076000600560008a73ffffffffffffffffffffffffffffffffffffffff1673ffffffffffffffffffffffffffffffffffffffff16815260200190815260200160002060008981526020019081526020016000208481548110610c5c57610c5b616608565b5b906000526020600020906006020160000154815260200190815260200160002060060154145b1561336b57600060076000600560008a73ffffffffffffffffffffffffffffffffffffffff1673ffffffffffffffffffffffffffffffffffffffff16815260200190815260200160002060008981526020019081526020016000208481548110610cef57610cee616608565b5b9060005260206000209060060201600001548152602001908152602001600020600001549050600060076000600560008b73ffffffffffffffffffffffffffffffffffffffff1673ffffffffffffffffffffffffffffffffffffffff16815260200190815260200160002060008a81526020019081526020016000208581548110610d7d57610d7c616608565b5b9060005260206000209060060201600001548152602001908152602001600020600301549050600060076000600560008c73ffffffffffffffffffffffffffffffffffffffff1673ffffffffffffffffffffffffffffffffffffffff16815260200190815260200160002060008b81526020019081526020016000208681548110610e0b57610e0a616608565b5b906000526020600020906006020160000154815260200190815260200160002060040154905060606000600560008c73ffffffffffffffffffffffffffffffffffffffff1673ffffffffffffffffffffffffffffffffffffffff16815260200190815260200160002060008b81526020019081526020016000208681548110610e9757610e96616608565b5b90600052602060002090600602016002018054610eb3906165d7565b80601f0160208091040260200160405190810160405280929190818152602001828054610edf906165d7565b8015610f2c5780601f10610f0157610100808354040283529160200191610f2c565b820191906000526020600020905b815481529060010190602001808311610f0f57829003601f168201915b5050505050905060011515610f76826040518060400160405280600381526020017f31583200000000000000000000000000000000000000000000000000000000008152506142a1565b151514801561100e5750600160076000600560008f73ffffffffffffffffffffffffffffffffffffffff1673ffffffffffffffffffffffffffffffffffffffff16815260200190815260200160002060008e81526020019081526020016000208981548110610fe857610fe7616608565b5b906000526020600020906006020160000154815260200190815260200160002060060154145b156110dc5782841115611058576040518060400160405280600181526020017f310000000000000000000000000000000000000000000000000000000000000081525091506110d7565b8383111561109d576040518060400160405280600181526020017f320000000000000000000000000000000000000000000000000000000000000081525091506110d6565b6040518060400160405280600181526020017f580000000000000000000000000000000000000000000000000000000000000081525091505b5b612c4e565b6001151561111f826040518060400160405280600581526020017f47472f4e470000000000000000000000000000000000000000000000000000008152506142a1565b15151480156111b75750600160076000600560008f73ffffffffffffffffffffffffffffffffffffffff1673ffffffffffffffffffffffffffffffffffffffff16815260200190815260200160002060008e8152602001908152602001600020898154811061119157611190616608565b5b906000526020600020906006020160000154815260200190815260200160002060060154145b15611308576000841180156111cc5750600083115b1561120e576040518060400160405280600281526020017f47470000000000000000000000000000000000000000000000000000000000008152509150611303565b60008411801561121e5750600083145b15611260576040518060400160405280600281526020017f4e470000000000000000000000000000000000000000000000000000000000008152509150611302565b6000841480156112705750600083115b156112b2576040518060400160405280600281526020017f4e470000000000000000000000000000000000000000000000000000000000008152509150611301565b6000841480156112c25750600083145b15611300576040518060400160405280600281526020017f4e4700000000000000000000000000000000000000000000000000000000000081525091505b5b5b5b612c4d565b6001151561134b826040518060400160405280600581526020017f4f562f554e0000000000000000000000000000000000000000000000000000008152506142a1565b15151480156113e35750600160076000600560008f73ffffffffffffffffffffffffffffffffffffffff1673ffffffffffffffffffffffffffffffffffffffff16815260200190815260200160002060008e815260200190815260200160002089815481106113bd576113bc616608565b5b906000526020600020906006020160000154815260200190815260200160002060060154145b1561147c57600083856113f69190616666565b90506003811061143d576040518060400160405280600481526020017f4f563235000000000000000000000000000000000000000000000000000000008152509250611476565b6040518060400160405280600481526020017f554e32350000000000000000000000000000000000000000000000000000000081525092505b50612c4c565b600115156114bf826040518060400160405280600d81526020017f446f75626c65204368616e6365000000000000000000000000000000000000008152506142a1565b15151480156115575750600160076000600560008f73ffffffffffffffffffffffffffffffffffffffff1673ffffffffffffffffffffffffffffffffffffffff16815260200190815260200160002060008e8152602001908152602001600020898154811061153157611530616608565b5b906000526020600020906006020160000154815260200190815260200160002060060154145b1561164c578284118061156957508284145b156115ab576040518060400160405280600381526020017f312f5800000000000000000000000000000000000000000000000000000000008152509150611647565b838311806115b857508284145b156115fa576040518060400160405280600381526020017f582f3200000000000000000000000000000000000000000000000000000000008152509150611646565b8383118061160757508284115b15611645576040518060400160405280600381526020017f312f32000000000000000000000000000000000000000000000000000000000081525091505b5b5b612c4b565b6001151561168f826040518060400160405280600581526020017f546f74616c0000000000000000000000000000000000000000000000000000008152506142a1565b15151480156117275750600160076000600560008f73ffffffffffffffffffffffffffffffffffffffff1673ffffffffffffffffffffffffffffffffffffffff16815260200190815260200160002060008e8152602001908152602001600020898154811061170157611700616608565b5b906000526020600020906006020160000154815260200190815260200160002060060154145b15612c4a576000838561173a9190616666565b90506000811180156118825750611881600560008e73ffffffffffffffffffffffffffffffffffffffff1673ffffffffffffffffffffffffffffffffffffffff16815260200190815260200160002060008d815260200190815260200160002088815481106117ac576117ab616608565b5b906000526020600020906006020160030180546117c8906165d7565b80601f01602080910402602001604051908101604052809291908181526020018280546117f4906165d7565b80156118415780601f1061181657610100808354040283529160200191611841565b820191906000526020600020905b81548152906001019060200180831161182457829003601f168201915b50505050506040518060400160405280600881526020017f4f76657220302e350000000000000000000000000000000000000000000000008152506142a1565b5b156118c4576040518060400160405280600881526020017f4f76657220302e3500000000000000000000000000000000000000000000000081525092506118fd565b6040518060400160405280600981526020017f556e64657220302e35000000000000000000000000000000000000000000000081525092505b600181118015611a435750611a42600560008e73ffffffffffffffffffffffffffffffffffffffff1673ffffffffffffffffffffffffffffffffffffffff16815260200190815260200160002060008d8152602001908152602001600020888154811061196d5761196c616608565b5b90600052602060002090600602016003018054611989906165d7565b80601f01602080910402602001604051908101604052809291908181526020018280546119b5906165d7565b8015611a025780601f106119d757610100808354040283529160200191611a02565b820191906000526020600020905b8154815290600101906020018083116119e557829003601f168201915b50505050506040518060400160405280600881526020017f4f76657220312e350000000000000000000000000000000000000000000000008152506142a1565b5b15611a85576040518060400160405280600881526020017f4f76657220312e350000000000000000000000000000000000000000000000008152509250611abe565b6040518060400160405280600981526020017f556e64657220312e35000000000000000000000000000000000000000000000081525092505b600281118015611c045750611c03600560008e73ffffffffffffffffffffffffffffffffffffffff1673ffffffffffffffffffffffffffffffffffffffff16815260200190815260200160002060008d81526020019081526020016000208881548110611b2e57611b2d616608565b5b90600052602060002090600602016003018054611b4a906165d7565b80601f0160208091040260200160405190810160405280929190818152602001828054611b76906165d7565b8015611bc35780601f10611b9857610100808354040283529160200191611bc3565b820191906000526020600020905b815481529060010190602001808311611ba657829003601f168201915b50505050506040518060400160405280600881526020017f4f76657220322e350000000000000000000000000000000000000000000000008152506142a1565b5b15611c46576040518060400160405280600881526020017f4f76657220322e350000000000000000000000000000000000000000000000008152509250611c7f565b6040518060400160405280600981526020017f556e64657220322e35000000000000000000000000000000000000000000000081525092505b600381118015611dc55750611dc4600560008e73ffffffffffffffffffffffffffffffffffffffff1673ffffffffffffffffffffffffffffffffffffffff16815260200190815260200160002060008d81526020019081526020016000208881548110611cef57611cee616608565b5b90600052602060002090600602016003018054611d0b906165d7565b80601f0160208091040260200160405190810160405280929190818152602001828054611d37906165d7565b8015611d845780601f10611d5957610100808354040283529160200191611d84565b820191906000526020600020905b815481529060010190602001808311611d6757829003601f168201915b50505050506040518060400160405280600881526020017f4f76657220332e350000000000000000000000000000000000000000000000008152506142a1565b5b15611e07576040518060400160405280600881526020017f4f76657220332e350000000000000000000000000000000000000000000000008152509250611e40565b6040518060400160405280600981526020017f556e64657220332e35000000000000000000000000000000000000000000000081525092505b600481118015611f865750611f85600560008e73ffffffffffffffffffffffffffffffffffffffff1673ffffffffffffffffffffffffffffffffffffffff16815260200190815260200160002060008d81526020019081526020016000208881548110611eb057611eaf616608565b5b90600052602060002090600602016003018054611ecc906165d7565b80601f0160208091040260200160405190810160405280929190818152602001828054611ef8906165d7565b8015611f455780601f10611f1a57610100808354040283529160200191611f45565b820191906000526020600020905b815481529060010190602001808311611f2857829003601f168201915b50505050506040518060400160405280600881526020017f4f76657220342e350000000000000000000000000000000000000000000000008152506142a1565b5b15611fc8576040518060400160405280600881526020017f4f76657220342e350000000000000000000000000000000000000000000000008152509250612001565b6040518060400160405280600981526020017f556e64657220342e35000000000000000000000000000000000000000000000081525092505b6005811180156121475750612146600560008e73ffffffffffffffffffffffffffffffffffffffff1673ffffffffffffffffffffffffffffffffffffffff16815260200190815260200160002060008d8152602001908152602001600020888154811061207157612070616608565b5b9060005260206000209060060201600301805461208d906165d7565b80601f01602080910402602001604051908101604052809291908181526020018280546120b9906165d7565b80156121065780601f106120db57610100808354040283529160200191612106565b820191906000526020600020905b8154815290600101906020018083116120e957829003601f168201915b50505050506040518060400160405280600881526020017f4f76657220352e350000000000000000000000000000000000000000000000008152506142a1565b5b15612189576040518060400160405280600881526020017f4f76657220352e3500000000000000000000000000000000000000000000000081525092506121c2565b6040518060400160405280600981526020017f556e64657220352e35000000000000000000000000000000000000000000000081525092505b6006811080156123085750612307600560008e73ffffffffffffffffffffffffffffffffffffffff1673ffffffffffffffffffffffffffffffffffffffff16815260200190815260200160002060008d8152602001908152602001600020888154811061223257612231616608565b5b9060005260206000209060060201600301805461224e906165d7565b80601f016020809104026020016040519081016040528092919081815260200182805461227a906165d7565b80156122c75780601f1061229c576101008083540402835291602001916122c7565b820191906000526020600020905b8154815290600101906020018083116122aa57829003601f168201915b50505050506040518060400160405280600981526020017f556e64657220352e3500000000000000000000000000000000000000000000008152506142a1565b5b1561234a576040518060400160405280600981526020017f556e64657220352e3500000000000000000000000000000000000000000000008152509250612383565b6040518060400160405280600881526020017f4f76657220352e3500000000000000000000000000000000000000000000000081525092505b6005811080156124c957506124c8600560008e73ffffffffffffffffffffffffffffffffffffffff1673ffffffffffffffffffffffffffffffffffffffff16815260200190815260200160002060008d815260200190815260200160002088815481106123f3576123f2616608565b5b9060005260206000209060060201600301805461240f906165d7565b80601f016020809104026020016040519081016040528092919081815260200182805461243b906165d7565b80156124885780601f1061245d57610100808354040283529160200191612488565b820191906000526020600020905b81548152906001019060200180831161246b57829003601f168201915b50505050506040518060400160405280600981526020017f556e64657220342e3500000000000000000000000000000000000000000000008152506142a1565b5b1561250b576040518060400160405280600981526020017f556e64657220342e3500000000000000000000000000000000000000000000008152509250612544565b6040518060400160405280600881526020017f4f76657220342e3500000000000000000000000000000000000000000000000081525092505b60048110801561268a5750612689600560008e73ffffffffffffffffffffffffffffffffffffffff1673ffffffffffffffffffffffffffffffffffffffff16815260200190815260200160002060008d815260200190815260200160002088815481106125b4576125b3616608565b5b906000526020600020906006020160030180546125d0906165d7565b80601f01602080910402602001604051908101604052809291908181526020018280546125fc906165d7565b80156126495780601f1061261e57610100808354040283529160200191612649565b820191906000526020600020905b81548152906001019060200180831161262c57829003601f168201915b50505050506040518060400160405280600981526020017f556e64657220332e3500000000000000000000000000000000000000000000008152506142a1565b5b156126cc576040518060400160405280600981526020017f556e64657220332e3500000000000000000000000000000000000000000000008152509250612705565b6040518060400160405280600881526020017f4f76657220332e3500000000000000000000000000000000000000000000000081525092505b60038110801561284b575061284a600560008e73ffffffffffffffffffffffffffffffffffffffff1673ffffffffffffffffffffffffffffffffffffffff16815260200190815260200160002060008d8152602001908152602001600020888154811061277557612774616608565b5b90600052602060002090600602016003018054612791906165d7565b80601f01602080910402602001604051908101604052809291908181526020018280546127bd906165d7565b801561280a5780601f106127df5761010080835404028352916020019161280a565b820191906000526020600020905b8154815290600101906020018083116127ed57829003601f168201915b50505050506040518060400160405280600981526020017f556e64657220322e3500000000000000000000000000000000000000000000008152506142a1565b5b1561288d576040518060400160405280600981526020017f556e64657220322e35000000000000000000000000000000000000000000000081525092506128c6565b6040518060400160405280600881526020017f4f76657220322e3500000000000000000000000000000000000000000000000081525092505b600281108015612a0c5750612a0b600560008e73ffffffffffffffffffffffffffffffffffffffff1673ffffffffffffffffffffffffffffffffffffffff16815260200190815260200160002060008d8152602001908152602001600020888154811061293657612935616608565b5b90600052602060002090600602016003018054612952906165d7565b80601f016020809104026020016040519081016040528092919081815260200182805461297e906165d7565b80156129cb5780601f106129a0576101008083540402835291602001916129cb565b820191906000526020600020905b8154815290600101906020018083116129ae57829003601f168201915b50505050506040518060400160405280600981526020017f556e64657220312e3500000000000000000000000000000000000000000000008152506142a1565b5b15612a4e576040518060400160405280600981526020017f556e64657220312e3500000000000000000000000000000000000000000000008152509250612a87565b6040518060400160405280600881526020017f4f76657220312e3500000000000000000000000000000000000000000000000081525092505b600181108015612bcd5750612bcc600560008e73ffffffffffffffffffffffffffffffffffffffff1673ffffffffffffffffffffffffffffffffffffffff16815260200190815260200160002060008d81526020019081526020016000208881548110612af757612af6616608565b5b90600052602060002090600602016003018054612b13906165d7565b80601f0160208091040260200160405190810160405280929190818152602001828054612b3f906165d7565b8015612b8c5780601f10612b6157610100808354040283529160200191612b8c565b820191906000526020600020905b815481529060010190602001808311612b6f57829003601f168201915b50505050506040518060400160405280600981526020017f556e64657220302e3500000000000000000000000000000000000000000000008152506142a1565b5b15612c0f576040518060400160405280600981526020017f556e64657220302e3500000000000000000000000000000000000000000000008152509250612c48565b6040518060400160405280600881526020017f4f76657220302e3500000000000000000000000000000000000000000000000081525092505b505b5b5b5b5b81600560008d73ffffffffffffffffffffffffffffffffffffffff1673ffffffffffffffffffffffffffffffffffffffff16815260200190815260200160002060008c81526020019081526020016000208781548110612cb157612cb0616608565b5b90600052602060002090600602016004019080519060200190612cd59291906151b8565b5060011515612eda600560008e73ffffffffffffffffffffffffffffffffffffffff1673ffffffffffffffffffffffffffffffffffffffff16815260200190815260200160002060008d81526020019081526020016000208881548110612d3f57612d3e616608565b5b90600052602060002090600602016004018054612d5b906165d7565b80601f0160208091040260200160405190810160405280929190818152602001828054612d87906165d7565b8015612dd45780601f10612da957610100808354040283529160200191612dd4565b820191906000526020600020905b815481529060010190602001808311612db757829003601f168201915b5050505050600560008f73ffffffffffffffffffffffffffffffffffffffff1673ffffffffffffffffffffffffffffffffffffffff16815260200190815260200160002060008e81526020019081526020016000208981548110612e3b57612e3a616608565b5b90600052602060002090600602016003018054612e57906165d7565b80601f0160208091040260200160405190810160405280929190818152602001828054612e83906165d7565b8015612ed05780601f10612ea557610100808354040283529160200191612ed0565b820191906000526020600020905b815481529060010190602001808311612eb357829003601f168201915b50505050506142a1565b1515148015612f725750600160076000600560008f73ffffffffffffffffffffffffffffffffffffffff1673ffffffffffffffffffffffffffffffffffffffff16815260200190815260200160002060008e81526020019081526020016000208981548110612f4c57612f4b616608565b5b906000526020600020906006020160000154815260200190815260200160002060060154145b15613008576001600560008d73ffffffffffffffffffffffffffffffffffffffff1673ffffffffffffffffffffffffffffffffffffffff16815260200190815260200160002060008c81526020019081526020016000208781548110612fdb57612fda616608565b5b906000526020600020906006020160050160006101000a81548160ff021916908315150217905550613345565b6000151561320c600560008e73ffffffffffffffffffffffffffffffffffffffff1673ffffffffffffffffffffffffffffffffffffffff16815260200190815260200160002060008d8152602001908152602001600020888154811061307157613070616608565b5b9060005260206000209060060201600401805461308d906165d7565b80601f01602080910402602001604051908101604052809291908181526020018280546130b9906165d7565b80156131065780601f106130db57610100808354040283529160200191613106565b820191906000526020600020905b8154815290600101906020018083116130e957829003601f168201915b5050505050600560008f73ffffffffffffffffffffffffffffffffffffffff1673ffffffffffffffffffffffffffffffffffffffff16815260200190815260200160002060008e8152602001908152602001600020898154811061316d5761316c616608565b5b90600052602060002090600602016003018054613189906165d7565b80601f01602080910402602001604051908101604052809291908181526020018280546131b5906165d7565b80156132025780601f106131d757610100808354040283529160200191613202565b820191906000526020600020905b8154815290600101906020018083116131e557829003601f168201915b50505050506142a1565b15151480156132a45750600160076000600560008f73ffffffffffffffffffffffffffffffffffffffff1673ffffffffffffffffffffffffffffffffffffffff16815260200190815260200160002060008e8152602001908152602001600020898154811061327e5761327d616608565b5b906000526020600020906006020160000154815260200190815260200160002060060154145b15613344576000600560008d73ffffffffffffffffffffffffffffffffffffffff1673ffffffffffffffffffffffffffffffffffffffff16815260200190815260200160002060008c8152602001908152602001600020878154811061330d5761330c616608565b5b906000526020600020906006020160050160006101000a81548160ff0219169083151502179055508680613340906166bc565b9750505b5b878061335090616704565b98505050505050508080613363906166bc565b915050610bea565b506000613377866145dd565b51905060005b818110801561338c5750600084145b1561356b5785600660008973ffffffffffffffffffffffffffffffffffffffff1673ffffffffffffffffffffffffffffffffffffffff16815260200190815260200160002082815481106133e3576133e2616608565b5b90600052602060002090600602016000015403613558576001831015613557576001600660008973ffffffffffffffffffffffffffffffffffffffff1673ffffffffffffffffffffffffffffffffffffffff168152602001908152602001600020828154811061345657613455616608565b5b906000526020600020906006020160010160006101000a81548160ff0219169083151502179055506001600660008973ffffffffffffffffffffffffffffffffffffffff1673ffffffffffffffffffffffffffffffffffffffff16815260200190815260200160002082815481106134d1576134d0616608565b5b906000526020600020906006020160010160016101000a81548160ff02191690831515021790555060096000878152602001908152602001600020600080820160006101000a81549073ffffffffffffffffffffffffffffffffffffffff0219169055600182016000905550506002600081548092919061355190616704565b91905055505b5b8080613563906166bc565b91505061337d565b5060005b818110156137515785600660008973ffffffffffffffffffffffffffffffffffffffff1673ffffffffffffffffffffffffffffffffffffffff16815260200190815260200160002082815481106135c9576135c8616608565b5b9060005260206000209060060201600001540361373e57600083111561373d576001600660008973ffffffffffffffffffffffffffffffffffffffff1673ffffffffffffffffffffffffffffffffffffffff168152602001908152602001600020828154811061363c5761363b616608565b5b906000526020600020906006020160010160006101000a81548160ff0219169083151502179055506000600660008973ffffffffffffffffffffffffffffffffffffffff1673ffffffffffffffffffffffffffffffffffffffff16815260200190815260200160002082815481106136b7576136b6616608565b5b906000526020600020906006020160010160016101000a81548160ff02191690831515021790555060096000878152602001908152602001600020600080820160006101000a81549073ffffffffffffffffffffffffffffffffffffffff0219169055600182016000905550506002600081548092919061373790616704565b91905055505b5b8080613749906166bc565b91505061356f565b50505050505050565b60005481565b60005b825181101561392e57600860008381526020019081526020016000206040518060e0016040528085848151811061379d5761379c616608565b5b60200260200101516000015181526020018584815181106137c1576137c0616608565b5b60200260200101516020015181526020018584815181106137e5576137e4616608565b5b602002602001015160400151815260200185848151811061380957613808616608565b5b602002602001015160600151815260200185848151811061382d5761382c616608565b5b602002602001015160800151815260200185848151811061385157613850616608565b5b602002602001015160a00151815260200185848151811061387557613874616608565b5b602002602001015160c0015181525090806001815401808255809150506001900390600052602060002090600702016000909190919091506000820151816000015560208201518160010190805190602001906138d39291906151b8565b5060408201518160020190805190602001906138f09291906151b8565b50606082015181600301556080820151816004015560a0820151816005015560c0820151816006015550508080613926906166bc565b915050613763565b505050565b606060016000815480929190613948906166bc565b919050555060006040518060400160405280600781526020017f70656e64696e67000000000000000000000000000000000000000000000000008152509050600033905060003090506000808273ffffffffffffffffffffffffffffffffffffffff16346040516139b89061675e565b60006040518083038185875af1925050503d80600081146139f5576040519150601f19603f3d011682016040523d82523d6000602084013e6139fa565b606091505b509150915060005b8a51811015613be157600560008673ffffffffffffffffffffffffffffffffffffffff1673ffffffffffffffffffffffffffffffffffffffff168152602001908152602001600020600060015481526020019081526020016000206040518060c001604052808d8481518110613a7b57613a7a616608565b5b60200260200101516000015181526020018d8481518110613a9f57613a9e616608565b5b60200260200101516020015181526020018d8481518110613ac357613ac2616608565b5b60200260200101516040015181526020018d8481518110613ae757613ae6616608565b5b6020026020010151606001518152602001888152602001600015158152509080600181540180825580915050600190039060005260206000209060060201600090919091909150600082015181600001556020820151816001019080519060200190613b549291906151b8565b506040820151816002019080519060200190613b719291906151b8565b506060820151816003019080519060200190613b8e9291906151b8565b506080820151816004019080519060200190613bab9291906151b8565b5060a08201518160050160006101000a81548160ff02191690831515021790555050508080613bd9906166bc565b915050613a02565b50600660008573ffffffffffffffffffffffffffffffffffffffff1673ffffffffffffffffffffffffffffffffffffffff1681526020019081526020016000206040518060e0016040528060015481526020016000151581526020016000151581526020018b81526020018a81526020018981526020014281525090806001815401808255809150506001900390600052602060002090600602016000909190919091506000820151816000015560208201518160010160006101000a81548160ff02191690831515021790555060408201518160010160016101000a81548160ff021916908315150217905550606082015181600201556080820151816003019080519060200190613cf59291906151b8565b5060a0820151816004015560c08201518160050155505060026000815480929190613d1f906166bc565b919050555060405180604001604052803373ffffffffffffffffffffffffffffffffffffffff16815260200160015481525060096000600254815260200190815260200160002060008201518160000160006101000a81548173ffffffffffffffffffffffffffffffffffffffff021916908373ffffffffffffffffffffffffffffffffffffffff160217905550602082015181600101559050506040518060400160405280601081526020017f626574207375636365737366756c6c790000000000000000000000000000000081525095505050505050949350505050565b60036020528060005260406000206000915090508060000160009054906101000a900473ffffffffffffffffffffffffffffffffffffffff1690806001018054613e48906165d7565b80601f0160208091040260200160405190810160405280929190818152602001828054613e74906165d7565b8015613ec15780601f10613e9657610100808354040283529160200191613ec1565b820191906000526020600020905b815481529060010190602001808311613ea457829003601f168201915b5050505050905082565b6007602052806000526040600020600091509050806000015490806001018054613ef4906165d7565b80601f0160208091040260200160405190810160405280929190818152602001828054613f20906165d7565b8015613f6d5780601f10613f4257610100808354040283529160200191613f6d565b820191906000526020600020905b815481529060010190602001808311613f5057829003601f168201915b505050505090806002018054613f82906165d7565b80601f0160208091040260200160405190810160405280929190818152602001828054613fae906165d7565b8015613ffb5780601f10613fd057610100808354040283529160200191613ffb565b820191906000526020600020905b815481529060010190602001808311613fde57829003601f168201915b5050505050908060030154908060040154908060050154908060060154905087565b6060600080815480929190614031906166bc565b919050555060003090506000808273ffffffffffffffffffffffffffffffffffffffff16866040516140629061675e565b60006040518083038185875af1925050503d806000811461409f576040519150601f19603f3d011682016040523d82523d6000602084013e6140a4565b606091505b5091509150816140e9576040517f08c379a00000000000000000000000000000000000000000000000000000000081526004016140e0906167bf565b60405180910390fd5b6000859050600460003373ffffffffffffffffffffffffffffffffffffffff1673ffffffffffffffffffffffffffffffffffffffff1681526020019081526020016000206040518060e0016040528060005481526020018b81526020018a81526020018881526020018981526020016000151581526020014281525090806001815401808255809150506001900390600052602060002090600702016000909190919091506000820151816000015560208201518160010190805190602001906141b49291906151b8565b5060408201518160020190805190602001906141d19291906151b8565b50606082015181600301556080820151816004015560a08201518160050160006101000a81548160ff02191690831515021790555060c082015181600601555050600086111561425c576040518060400160405280600781526020017f62657420776f6e00000000000000000000000000000000000000000000000000815250945050505050614299565b6040518060400160405280600881526020017f626574206c6f73740000000000000000000000000000000000000000000000008152509450505050505b949350505050565b60008180519060200120838051906020012014905092915050565b8073ffffffffffffffffffffffffffffffffffffffff166108fc670de0b6b3a76400009081150290604051600060405180830381858888f1935050505015801561430a573d6000803e3d6000fd5b5050565b6006602052816000526040600020818154811061432a57600080fd5b9060005260206000209060060201600091509150508060000154908060010160009054906101000a900460ff16908060010160019054906101000a900460ff1690806002015490806003018054614380906165d7565b80601f01602080910402602001604051908101604052809291908181526020018280546143ac906165d7565b80156143f95780601f106143ce576101008083540402835291602001916143f9565b820191906000526020600020905b8154815290600101906020018083116143dc57829003601f168201915b5050505050908060040154908060050154905087565b60025481565b60005b81518110156145d9576040518060e0016040528083838151811061443f5761443e616608565b5b602002602001015160000151815260200183838151811061446357614462616608565b5b602002602001015160200151815260200183838151811061448757614486616608565b5b60200260200101516040015181526020018383815181106144ab576144aa616608565b5b60200260200101516060015181526020018383815181106144cf576144ce616608565b5b60200260200101516080015181526020018383815181106144f3576144f2616608565b5b602002602001015160a00151815260200183838151811061451757614516616608565b5b602002602001015160c001518152506007600084848151811061453d5761453c616608565b5b602002602001015160000151815260200190815260200160002060008201518160000155602082015181600101908051906020019061457d9291906151b8565b50604082015181600201908051906020019061459a9291906151b8565b50606082015181600301556080820151816004015560a0820151816005015560c0820151816006015590505080806145d1906166bc565b915050614418565b5050565b6060600660008373ffffffffffffffffffffffffffffffffffffffff1673ffffffffffffffffffffffffffffffffffffffff168152602001908152602001600020805480602002602001604051908101604052809291908181526020016000905b8282101561476057838290600052602060002090600602016040518060e0016040529081600082015481526020016001820160009054906101000a900460ff161515151581526020016001820160019054906101000a900460ff16151515158152602001600282015481526020016003820180546146bb906165d7565b80601f01602080910402602001604051908101604052809291908181526020018280546146e7906165d7565b80156147345780601f1061470957610100808354040283529160200191614734565b820191906000526020600020905b81548152906001019060200180831161471757829003601f168201915b50505050508152602001600482015481526020016005820154815250508152602001906001019061463e565b505050509050919050565b6008602052816000526040600020818154811061478757600080fd5b9060005260206000209060070201600091509150508060000154908060010180546147b1906165d7565b80601f01602080910402602001604051908101604052809291908181526020018280546147dd906165d7565b801561482a5780601f106147ff5761010080835404028352916020019161482a565b820191906000526020600020905b81548152906001019060200180831161480d57829003601f168201915b50505050509080600201805461483f906165d7565b80601f016020809104026020016040519081016040528092919081815260200182805461486b906165d7565b80156148b85780601f1061488d576101008083540402835291602001916148b8565b820191906000526020600020905b81548152906001019060200180831161489b57829003601f168201915b5050505050908060030154908060040154908060050154908060060154905087565b60096020528060005260406000206000915090508060000160009054906101000a900473ffffffffffffffffffffffffffffffffffffffff16908060010154905082565b6040518060e00160405280888152602001878152602001868152602001858152602001848152602001838152602001828152506007600089815260200190815260200160002060008201518160000155602082015181600101908051906020019061498a9291906151b8565b5060408201518160020190805190602001906149a79291906151b8565b50606082015181600301556080820151816004015560a0820151816005015560c0820151816006015590505050505050505050565b6060600560008473ffffffffffffffffffffffffffffffffffffffff1673ffffffffffffffffffffffffffffffffffffffff1681526020019081526020016000206000838152602001908152602001600020805480602002602001604051908101604052809291908181526020016000905b82821015614ced57838290600052602060002090600602016040518060c001604052908160008201548152602001600182018054614a8b906165d7565b80601f0160208091040260200160405190810160405280929190818152602001828054614ab7906165d7565b8015614b045780601f10614ad957610100808354040283529160200191614b04565b820191906000526020600020905b815481529060010190602001808311614ae757829003601f168201915b50505050508152602001600282018054614b1d906165d7565b80601f0160208091040260200160405190810160405280929190818152602001828054614b49906165d7565b8015614b965780601f10614b6b57610100808354040283529160200191614b96565b820191906000526020600020905b815481529060010190602001808311614b7957829003601f168201915b50505050508152602001600382018054614baf906165d7565b80601f0160208091040260200160405190810160405280929190818152602001828054614bdb906165d7565b8015614c285780601f10614bfd57610100808354040283529160200191614c28565b820191906000526020600020905b815481529060010190602001808311614c0b57829003601f168201915b50505050508152602001600482018054614c41906165d7565b80601f0160208091040260200160405190810160405280929190818152602001828054614c6d906165d7565b8015614cba5780601f10614c8f57610100808354040283529160200191614cba565b820191906000526020600020905b815481529060010190602001808311614c9d57829003601f168201915b505050505081526020016005820160009054906101000a900460ff16151515158152505081526020019060010190614a4e565b50505050905092915050565b60015481565b60003390506000600460003373ffffffffffffffffffffffffffffffffffffffff1673ffffffffffffffffffffffffffffffffffffffff16815260200190815260200160002080549050905060005b81811015614fad5783600460003373ffffffffffffffffffffffffffffffffffffffff1673ffffffffffffffffffffffffffffffffffffffff1681526020019081526020016000208281548110614da857614da7616608565b5b90600052602060002090600702016000015403614f9a5760001515600460003373ffffffffffffffffffffffffffffffffffffffff1673ffffffffffffffffffffffffffffffffffffffff1681526020019081526020016000208281548110614e1457614e13616608565b5b906000526020600020906007020160050160009054906101000a900460ff16151514614e75576040517f08c379a0000000000000000000000000000000000000000000000000000000008152600401614e6c9061682b565b60405180910390fd5b8273ffffffffffffffffffffffffffffffffffffffff166108fc600460003373ffffffffffffffffffffffffffffffffffffffff1673ffffffffffffffffffffffffffffffffffffffff1681526020019081526020016000208381548110614ee057614edf616608565b5b9060005260206000209060070201600301549081150290604051600060405180830381858888f19350505050158015614f1d573d6000803e3d6000fd5b506001600460003373ffffffffffffffffffffffffffffffffffffffff1673ffffffffffffffffffffffffffffffffffffffff1681526020019081526020016000208281548110614f7157614f70616608565b5b906000526020600020906007020160050160006101000a81548160ff0219169083151502179055505b8080614fa5906166bc565b915050614d4e565b50505050565b6060600460008373ffffffffffffffffffffffffffffffffffffffff1673ffffffffffffffffffffffffffffffffffffffff168152602001908152602001600020805480602002602001604051908101604052809291908181526020016000905b828210156151ad57838290600052602060002090600702016040518060e001604052908160008201548152602001600182018054615051906165d7565b80601f016020809104026020016040519081016040528092919081815260200182805461507d906165d7565b80156150ca5780601f1061509f576101008083540402835291602001916150ca565b820191906000526020600020905b8154815290600101906020018083116150ad57829003601f168201915b505050505081526020016002820180546150e3906165d7565b80601f016020809104026020016040519081016040528092919081815260200182805461510f906165d7565b801561515c5780601f106151315761010080835404028352916020019161515c565b820191906000526020600020905b81548152906001019060200180831161513f57829003601f168201915b5050505050815260200160038201548152602001600482015481526020016005820160009054906101000a900460ff1615151515815260200160068201548152505081526020019060010190615014565b505050509050919050565b8280546151c4906165d7565b90600052602060002090601f0160209004810192826151e6576000855561522d565b82601f106151ff57805160ff191683800117855561522d565b8280016001018555821561522d579182015b8281111561522c578251825591602001919060010190615211565b5b50905061523a919061523e565b5090565b5b8082111561525757600081600090555060010161523f565b5090565b6000604051905090565b600080fd5b600080fd5b600073ffffffffffffffffffffffffffffffffffffffff82169050919050565b600061529a8261526f565b9050919050565b6152aa8161528f565b81146152b557600080fd5b50565b6000813590506152c7816152a1565b92915050565b6000819050919050565b6152e0816152cd565b81146152eb57600080fd5b50565b6000813590506152fd816152d7565b92915050565b6000806040838503121561531a57615319615265565b5b6000615328858286016152b8565b9250506020615339858286016152ee565b9150509250929050565b61534c816152cd565b82525050565b600081519050919050565b600082825260208201905092915050565b60005b8381101561538c578082015181840152602081019050615371565b8381111561539b576000848401525b50505050565b6000601f19601f8301169050919050565b60006153bd82615352565b6153c7818561535d565b93506153d781856020860161536e565b6153e0816153a1565b840191505092915050565b60008115159050919050565b615400816153eb565b82525050565b600060e08201905061541b600083018a615343565b818103602083015261542d81896153b2565b9050818103604083015261544181886153b2565b90506154506060830187615343565b61545d6080830186615343565b61546a60a08301856153f7565b61547760c0830184615343565b98975050505050505050565b60008060006060848603121561549c5761549b615265565b5b60006154aa868287016152b8565b93505060206154bb868287016152ee565b92505060406154cc868287016152ee565b9150509250925092565b600060c0820190506154eb6000830189615343565b81810360208301526154fd81886153b2565b9050818103604083015261551181876153b2565b9050818103606083015261552581866153b2565b9050818103608083015261553981856153b2565b905061554860a08301846153f7565b979650505050505050565b60006020820190506155686000830184615343565b92915050565b600080fd5b600080fd5b7f4e487b7100000000000000000000000000000000000000000000000000000000600052604160045260246000fd5b6155b0826153a1565b810181811067ffffffffffffffff821117156155cf576155ce615578565b5b80604052505050565b60006155e261525b565b90506155ee82826155a7565b919050565b600067ffffffffffffffff82111561560e5761560d615578565b5b615617826153a1565b9050602081019050919050565b82818337600083830152505050565b6000615646615641846155f3565b6155d8565b90508281526020810184848401111561566257615661615573565b5b61566d848285615624565b509392505050565b600082601f83011261568a5761568961556e565b5b813561569a848260208601615633565b91505092915050565b6000602082840312156156b9576156b8615265565b5b600082013567ffffffffffffffff8111156156d7576156d661526a565b5b6156e384828501615675565b91505092915050565b600067ffffffffffffffff82111561570757615706615578565b5b602082029050602081019050919050565b600080fd5b600080fd5b600080fd5b600060e0828403121561573d5761573c61571d565b5b61574760e06155d8565b90506000615757848285016152ee565b600083015250602082013567ffffffffffffffff81111561577b5761577a615722565b5b61578784828501615675565b602083015250604082013567ffffffffffffffff8111156157ab576157aa615722565b5b6157b784828501615675565b60408301525060606157cb848285016152ee565b60608301525060806157df848285016152ee565b60808301525060a06157f3848285016152ee565b60a08301525060c0615807848285016152ee565b60c08301525092915050565b6000615826615821846156ec565b6155d8565b9050808382526020820190506020840283018581111561584957615848615718565b5b835b8181101561589057803567ffffffffffffffff81111561586e5761586d61556e565b5b80860161587b8982615727565b8552602085019450505060208101905061584b565b5050509392505050565b600082601f8301126158af576158ae61556e565b5b81356158bf848260208601615813565b91505092915050565b600080604083850312156158df576158de615265565b5b600083013567ffffffffffffffff8111156158fd576158fc61526a565b5b6159098582860161589a565b925050602061591a858286016152ee565b9150509250929050565b600067ffffffffffffffff82111561593f5761593e615578565b5b602082029050602081019050919050565b615959816153eb565b811461596457600080fd5b50565b60008135905061597681615950565b92915050565b600060c082840312156159925761599161571d565b5b61599c60c06155d8565b905060006159ac848285016152ee565b600083015250602082013567ffffffffffffffff8111156159d0576159cf615722565b5b6159dc84828501615675565b602083015250604082013567ffffffffffffffff811115615a00576159ff615722565b5b615a0c84828501615675565b604083015250606082013567ffffffffffffffff811115615a3057615a2f615722565b5b615a3c84828501615675565b606083015250608082013567ffffffffffffffff811115615a6057615a5f615722565b5b615a6c84828501615675565b60808301525060a0615a8084828501615967565b60a08301525092915050565b6000615a9f615a9a84615924565b6155d8565b90508083825260208201905060208402830185811115615ac257615ac1615718565b5b835b81811015615b0957803567ffffffffffffffff811115615ae757615ae661556e565b5b808601615af4898261597c565b85526020850194505050602081019050615ac4565b5050509392505050565b600082601f830112615b2857615b2761556e565b5b8135615b38848260208601615a8c565b91505092915050565b60008060008060808587031215615b5b57615b5a615265565b5b600085013567ffffffffffffffff811115615b7957615b7861526a565b5b615b8587828801615b13565b9450506020615b96878288016152ee565b935050604085013567ffffffffffffffff811115615bb757615bb661526a565b5b615bc387828801615675565b9250506060615bd4878288016152ee565b91505092959194509250565b60006020820190508181036000830152615bfa81846153b2565b905092915050565b600060208284031215615c1857615c17615265565b5b6000615c26848285016152b8565b91505092915050565b615c388161528f565b82525050565b6000604082019050615c536000830185615c2f565b8181036020830152615c6581846153b2565b90509392505050565b600060208284031215615c8457615c83615265565b5b6000615c92848285016152ee565b91505092915050565b600060e082019050615cb0600083018a615343565b8181036020830152615cc281896153b2565b90508181036040830152615cd681886153b2565b9050615ce56060830187615343565b615cf26080830186615343565b615cff60a0830185615343565b615d0c60c0830184615343565b98975050505050505050565b60008060008060808587031215615d3257615d31615265565b5b600085013567ffffffffffffffff811115615d5057615d4f61526a565b5b615d5c87828801615675565b945050602085013567ffffffffffffffff811115615d7d57615d7c61526a565b5b615d8987828801615675565b9350506040615d9a878288016152ee565b9250506060615dab878288016152ee565b91505092959194509250565b60008060408385031215615dce57615dcd615265565b5b600083013567ffffffffffffffff811115615dec57615deb61526a565b5b615df885828601615675565b925050602083013567ffffffffffffffff811115615e1957615e1861526a565b5b615e2585828601615675565b9150509250929050565b6000602082019050615e4460008301846153f7565b92915050565b6000615e558261526f565b9050919050565b615e6581615e4a565b8114615e7057600080fd5b50565b600081359050615e8281615e5c565b92915050565b600060208284031215615e9e57615e9d615265565b5b6000615eac84828501615e73565b91505092915050565b600060e082019050615eca600083018a615343565b615ed760208301896153f7565b615ee460408301886153f7565b615ef16060830187615343565b8181036080830152615f0381866153b2565b9050615f1260a0830185615343565b615f1f60c0830184615343565b98975050505050505050565b600060208284031215615f4157615f40615265565b5b600082013567ffffffffffffffff811115615f5f57615f5e61526a565b5b615f6b8482850161589a565b91505092915050565b600081519050919050565b600082825260208201905092915050565b6000819050602082019050919050565b615fa9816152cd565b82525050565b615fb8816153eb565b82525050565b600082825260208201905092915050565b6000615fda82615352565b615fe48185615fbe565b9350615ff481856020860161536e565b615ffd816153a1565b840191505092915050565b600060e0830160008301516160206000860182615fa0565b5060208301516160336020860182615faf565b5060408301516160466040860182615faf565b5060608301516160596060860182615fa0565b50608083015184820360808601526160718282615fcf565b91505060a083015161608660a0860182615fa0565b5060c083015161609960c0860182615fa0565b508091505092915050565b60006160b08383616008565b905092915050565b6000602082019050919050565b60006160d082615f74565b6160da8185615f7f565b9350836020820285016160ec85615f90565b8060005b85811015616128578484038952815161610985826160a4565b9450616114836160b8565b925060208a019950506001810190506160f0565b50829750879550505050505092915050565b6000602082019050818103600083015261615481846160c5565b905092915050565b6000806040838503121561617357616172615265565b5b6000616181858286016152ee565b9250506020616192858286016152ee565b9150509250929050565b60006040820190506161b16000830185615c2f565b6161be6020830184615343565b9392505050565b600080600080600080600060e0888a0312156161e4576161e3615265565b5b60006161f28a828b016152ee565b975050602088013567ffffffffffffffff8111156162135761621261526a565b5b61621f8a828b01615675565b965050604088013567ffffffffffffffff8111156162405761623f61526a565b5b61624c8a828b01615675565b955050606061625d8a828b016152ee565b945050608061626e8a828b016152ee565b93505060a061627f8a828b016152ee565b92505060c06162908a828b016152ee565b91505092959891949750929550565b600081519050919050565b600082825260208201905092915050565b6000819050602082019050919050565b600060c0830160008301516162e36000860182615fa0565b50602083015184820360208601526162fb8282615fcf565b915050604083015184820360408601526163158282615fcf565b9150506060830151848203606086015261632f8282615fcf565b915050608083015184820360808601526163498282615fcf565b91505060a083015161635e60a0860182615faf565b508091505092915050565b600061637583836162cb565b905092915050565b6000602082019050919050565b60006163958261629f565b61639f81856162aa565b9350836020820285016163b1856162bb565b8060005b858110156163ed57848403895281516163ce8582616369565b94506163d98361637d565b925060208a019950506001810190506163b5565b50829750879550505050505092915050565b60006020820190508181036000830152616419818461638a565b905092915050565b600081519050919050565b600082825260208201905092915050565b6000819050602082019050919050565b600060e0830160008301516164656000860182615fa0565b506020830151848203602086015261647d8282615fcf565b915050604083015184820360408601526164978282615fcf565b91505060608301516164ac6060860182615fa0565b5060808301516164bf6080860182615fa0565b5060a08301516164d260a0860182615faf565b5060c08301516164e560c0860182615fa0565b508091505092915050565b60006164fc838361644d565b905092915050565b6000602082019050919050565b600061651c82616421565b616526818561642c565b9350836020820285016165388561643d565b8060005b85811015616574578484038952815161655585826164f0565b945061656083616504565b925060208a0199505060018101905061653c565b50829750879550505050505092915050565b600060208201905081810360008301526165a08184616511565b905092915050565b7f4e487b7100000000000000000000000000000000000000000000000000000000600052602260045260246000fd5b600060028204905060018216806165ef57607f821691505b602082108103616602576166016165a8565b5b50919050565b7f4e487b7100000000000000000000000000000000000000000000000000000000600052603260045260246000fd5b7f4e487b7100000000000000000000000000000000000000000000000000000000600052601160045260246000fd5b6000616671826152cd565b915061667c836152cd565b9250827fffffffffffffffffffffffffffffffffffffffffffffffffffffffffffffffff038211156166b1576166b0616637565b5b828201905092915050565b60006166c7826152cd565b91507fffffffffffffffffffffffffffffffffffffffffffffffffffffffffffffffff82036166f9576166f8616637565b5b600182019050919050565b600061670f826152cd565b91506000820361672257616721616637565b5b600182039050919050565b600081905092915050565b50565b600061674860008361672d565b915061675382616738565b600082019050919050565b60006167698261673b565b9150819050919050565b7f6661696c656420746f2073656e64206574686572000000000000000000000000600082015250565b60006167a960148361535d565b91506167b482616773565b602082019050919050565b600060208201905081810360008301526167d88161679c565b9050919050565b7f616c6c72656164792077697468647265772066756e6473000000000000000000600082015250565b600061681560178361535d565b9150616820826167df565b602082019050919050565b6000602082019050818103600083015261684481616808565b905091905056fea264697066735822122030e809255945d8e9a1723598083f0d71e20e658f4ff146bcc19ebb6cc484c0fb64736f6c634300080d0033",
  "immutableReferences": {},
  "source": "pragma solidity >=0.5.0 < 0.9.0;\r\n\r\nimport \"./Operations.sol\";\r\n\r\ncontract Main is Operations {\r\n    constructor() public{}\r\n} ",
  "sourcePath": "C:\\Users\\Felabs\\Desktop\\web3\\contracts\\Main.sol",
  "compiler": {
    "name": "solc",
    "version": "0.8.13+commit.abaa5c0e.Emscripten.clang"
  },
  "schemaVersion": "3.4.13",
  "updatedAt": "2023-05-16T19:26:25.853Z",
  "devdoc": {
    "kind": "dev",
    "methods": {},
    "version": 1
  },
  "userdoc": {
    "kind": "user",
    "methods": {},
    "version": 1
  }
}