{
  "contractName": "Operations",
  "abi": [
    {
      "inputs": [],
      "stateMutability": "payable",
      "type": "constructor",
      "payable": true
    },
    {
      "anonymous": false,
      "inputs": [
        {
          "indexed": false,
          "internalType": "uint256",
          "name": "betId",
          "type": "uint256"
        },
        {
          "indexed": false,
          "internalType": "uint256",
          "name": "deposit",
          "type": "uint256"
        },
        {
          "indexed": false,
          "internalType": "uint256",
          "name": "timestamp",
          "type": "uint256"
        },
        {
          "indexed": false,
          "internalType": "address",
          "name": "customer",
          "type": "address"
        }
      ],
      "name": "PlaceBet",
      "type": "event"
    },
    {
      "anonymous": false,
      "inputs": [
        {
          "indexed": false,
          "internalType": "uint256",
          "name": "betId",
          "type": "uint256"
        },
        {
          "indexed": false,
          "internalType": "uint256",
          "name": "deposit",
          "type": "uint256"
        },
        {
          "indexed": false,
          "internalType": "uint256",
          "name": "timestamp",
          "type": "uint256"
        },
        {
          "indexed": false,
          "internalType": "address",
          "name": "customer",
          "type": "address"
        }
      ],
      "name": "wonSpin",
      "type": "event"
    },
    {
      "stateMutability": "payable",
      "type": "fallback",
      "payable": true
    },
    {
      "inputs": [
        {
          "internalType": "uint256",
          "name": "",
          "type": "uint256"
        }
      ],
      "name": "activeBets",
      "outputs": [
        {
          "internalType": "address",
          "name": "accountId",
          "type": "address"
        },
        {
          "internalType": "uint256",
          "name": "betId",
          "type": "uint256"
        }
      ],
      "stateMutability": "view",
      "type": "function",
      "constant": true
    },
    {
      "inputs": [],
      "name": "activeBetsCount",
      "outputs": [
        {
          "internalType": "uint256",
          "name": "",
          "type": "uint256"
        }
      ],
      "stateMutability": "view",
      "type": "function",
      "constant": true
    },
    {
      "inputs": [
        {
          "internalType": "address",
          "name": "",
          "type": "address"
        },
        {
          "internalType": "uint256",
          "name": "",
          "type": "uint256"
        }
      ],
      "name": "arraySpins",
      "outputs": [
        {
          "internalType": "uint256",
          "name": "betId",
          "type": "uint256"
        },
        {
          "internalType": "string",
          "name": "betResult",
          "type": "string"
        },
        {
          "internalType": "string",
          "name": "gamingOdds",
          "type": "string"
        },
        {
          "internalType": "uint256",
          "name": "possiblePayout",
          "type": "uint256"
        },
        {
          "internalType": "uint256",
          "name": "deposit",
          "type": "uint256"
        },
        {
          "internalType": "bool",
          "name": "withdrawn",
          "type": "bool"
        },
        {
          "internalType": "uint256",
          "name": "timestamp",
          "type": "uint256"
        }
      ],
      "stateMutability": "view",
      "type": "function",
      "constant": true
    },
    {
      "inputs": [],
      "name": "betCount",
      "outputs": [
        {
          "internalType": "uint256",
          "name": "",
          "type": "uint256"
        }
      ],
      "stateMutability": "view",
      "type": "function",
      "constant": true
    },
    {
      "inputs": [
        {
          "internalType": "address",
          "name": "",
          "type": "address"
        }
      ],
      "name": "customers",
      "outputs": [
        {
          "internalType": "address",
          "name": "customerAccountId",
          "type": "address"
        },
        {
          "internalType": "string",
          "name": "name",
          "type": "string"
        }
      ],
      "stateMutability": "view",
      "type": "function",
      "constant": true
    },
    {
      "inputs": [
        {
          "internalType": "uint256",
          "name": "",
          "type": "uint256"
        }
      ],
      "name": "eventGames",
      "outputs": [
        {
          "internalType": "uint256",
          "name": "eventId",
          "type": "uint256"
        },
        {
          "internalType": "string",
          "name": "homeTeam",
          "type": "string"
        },
        {
          "internalType": "string",
          "name": "awayTeam",
          "type": "string"
        },
        {
          "internalType": "uint256",
          "name": "homeGoals",
          "type": "uint256"
        },
        {
          "internalType": "uint256",
          "name": "awayGoals",
          "type": "uint256"
        },
        {
          "internalType": "uint256",
          "name": "dateTime",
          "type": "uint256"
        },
        {
          "internalType": "uint256",
          "name": "matchFinished",
          "type": "uint256"
        }
      ],
      "stateMutability": "view",
      "type": "function",
      "constant": true
    },
    {
      "inputs": [
        {
          "internalType": "address",
          "name": "",
          "type": "address"
        },
        {
          "internalType": "uint256",
          "name": "",
          "type": "uint256"
        }
      ],
      "name": "justTrackBets",
      "outputs": [
        {
          "internalType": "uint256",
          "name": "betId",
          "type": "uint256"
        },
        {
          "internalType": "bool",
          "name": "betFinished",
          "type": "bool"
        },
        {
          "internalType": "bool",
          "name": "betWon",
          "type": "bool"
        },
        {
          "internalType": "uint256",
          "name": "deposit",
          "type": "uint256"
        },
        {
          "internalType": "string",
          "name": "totalOdds",
          "type": "string"
        },
        {
          "internalType": "uint256",
          "name": "possiblePayout",
          "type": "uint256"
        },
        {
          "internalType": "uint256",
          "name": "timestamp",
          "type": "uint256"
        },
        {
          "internalType": "bool",
          "name": "withdrawn",
          "type": "bool"
        }
      ],
      "stateMutability": "view",
      "type": "function",
      "constant": true
    },
    {
      "inputs": [
        {
          "internalType": "uint256",
          "name": "",
          "type": "uint256"
        },
        {
          "internalType": "uint256",
          "name": "",
          "type": "uint256"
        }
      ],
      "name": "nextVirtualGame",
      "outputs": [
        {
          "internalType": "uint256",
          "name": "eventId",
          "type": "uint256"
        },
        {
          "internalType": "string",
          "name": "homeTeam",
          "type": "string"
        },
        {
          "internalType": "string",
          "name": "awayTeam",
          "type": "string"
        },
        {
          "internalType": "uint256",
          "name": "homeGoals",
          "type": "uint256"
        },
        {
          "internalType": "uint256",
          "name": "awayGoals",
          "type": "uint256"
        },
        {
          "internalType": "uint256",
          "name": "dateTime",
          "type": "uint256"
        },
        {
          "internalType": "uint256",
          "name": "matchFinished",
          "type": "uint256"
        }
      ],
      "stateMutability": "view",
      "type": "function",
      "constant": true
    },
    {
      "inputs": [
        {
          "internalType": "address",
          "name": "",
          "type": "address"
        },
        {
          "internalType": "uint256",
          "name": "",
          "type": "uint256"
        },
        {
          "internalType": "uint256",
          "name": "",
          "type": "uint256"
        }
      ],
      "name": "normalbets",
      "outputs": [
        {
          "internalType": "uint256",
          "name": "matchId",
          "type": "uint256"
        },
        {
          "internalType": "string",
          "name": "teamNames",
          "type": "string"
        },
        {
          "internalType": "string",
          "name": "category",
          "type": "string"
        },
        {
          "internalType": "string",
          "name": "pick",
          "type": "string"
        },
        {
          "internalType": "string",
          "name": "outcome",
          "type": "string"
        },
        {
          "internalType": "bool",
          "name": "won",
          "type": "bool"
        }
      ],
      "stateMutability": "view",
      "type": "function",
      "constant": true
    },
    {
      "inputs": [],
      "name": "spinAndWinCount",
      "outputs": [
        {
          "internalType": "uint256",
          "name": "",
          "type": "uint256"
        }
      ],
      "stateMutability": "view",
      "type": "function",
      "constant": true
    },
    {
      "stateMutability": "payable",
      "type": "receive",
      "payable": true
    },
    {
      "inputs": [
        {
          "internalType": "uint256",
          "name": "_eventId",
          "type": "uint256"
        },
        {
          "internalType": "string",
          "name": "_homeTeam",
          "type": "string"
        },
        {
          "internalType": "string",
          "name": "_awayTeam",
          "type": "string"
        },
        {
          "internalType": "uint256",
          "name": "_homeGoals",
          "type": "uint256"
        },
        {
          "internalType": "uint256",
          "name": "_awayGoals",
          "type": "uint256"
        },
        {
          "internalType": "uint256",
          "name": "_dateTime",
          "type": "uint256"
        },
        {
          "internalType": "uint256",
          "name": "_matchFinished",
          "type": "uint256"
        }
      ],
      "name": "registerEventGame",
      "outputs": [],
      "stateMutability": "nonpayable",
      "type": "function"
    },
    {
      "inputs": [
        {
          "components": [
            {
              "internalType": "uint256",
              "name": "eventId",
              "type": "uint256"
            },
            {
              "internalType": "string",
              "name": "homeTeam",
              "type": "string"
            },
            {
              "internalType": "string",
              "name": "awayTeam",
              "type": "string"
            },
            {
              "internalType": "uint256",
              "name": "homeGoals",
              "type": "uint256"
            },
            {
              "internalType": "uint256",
              "name": "awayGoals",
              "type": "uint256"
            },
            {
              "internalType": "uint256",
              "name": "dateTime",
              "type": "uint256"
            },
            {
              "internalType": "uint256",
              "name": "matchFinished",
              "type": "uint256"
            }
          ],
          "internalType": "struct Operations.EventGame[]",
          "name": "_eventGames",
          "type": "tuple[]"
        },
        {
          "internalType": "uint256",
          "name": "_time",
          "type": "uint256"
        }
      ],
      "name": "registerNextVirtualGame",
      "outputs": [],
      "stateMutability": "nonpayable",
      "type": "function"
    },
    {
      "inputs": [
        {
          "components": [
            {
              "internalType": "uint256",
              "name": "eventId",
              "type": "uint256"
            },
            {
              "internalType": "string",
              "name": "homeTeam",
              "type": "string"
            },
            {
              "internalType": "string",
              "name": "awayTeam",
              "type": "string"
            },
            {
              "internalType": "uint256",
              "name": "homeGoals",
              "type": "uint256"
            },
            {
              "internalType": "uint256",
              "name": "awayGoals",
              "type": "uint256"
            },
            {
              "internalType": "uint256",
              "name": "dateTime",
              "type": "uint256"
            },
            {
              "internalType": "uint256",
              "name": "matchFinished",
              "type": "uint256"
            }
          ],
          "internalType": "struct Operations.EventGame[]",
          "name": "_eventGames",
          "type": "tuple[]"
        }
      ],
      "name": "registerMultipleEventGames",
      "outputs": [],
      "stateMutability": "nonpayable",
      "type": "function"
    },
    {
      "inputs": [
        {
          "internalType": "string",
          "name": "_name",
          "type": "string"
        }
      ],
      "name": "registerCustomer",
      "outputs": [],
      "stateMutability": "nonpayable",
      "type": "function"
    },
    {
      "inputs": [
        {
          "components": [
            {
              "internalType": "uint256",
              "name": "matchId",
              "type": "uint256"
            },
            {
              "internalType": "string",
              "name": "teamNames",
              "type": "string"
            },
            {
              "internalType": "string",
              "name": "category",
              "type": "string"
            },
            {
              "internalType": "string",
              "name": "pick",
              "type": "string"
            },
            {
              "internalType": "string",
              "name": "outcome",
              "type": "string"
            },
            {
              "internalType": "bool",
              "name": "won",
              "type": "bool"
            }
          ],
          "internalType": "struct Operations.miniBets[]",
          "name": "minibet",
          "type": "tuple[]"
        },
        {
          "internalType": "uint256",
          "name": "_deposit",
          "type": "uint256"
        },
        {
          "internalType": "string",
          "name": "_totalOdds",
          "type": "string"
        },
        {
          "internalType": "uint256",
          "name": "_possiblePayout",
          "type": "uint256"
        }
      ],
      "name": "placeNormalBet",
      "outputs": [
        {
          "internalType": "string",
          "name": "",
          "type": "string"
        }
      ],
      "stateMutability": "payable",
      "type": "function",
      "payable": true
    },
    {
      "inputs": [
        {
          "internalType": "address",
          "name": "_accountId",
          "type": "address"
        },
        {
          "internalType": "uint256",
          "name": "_betId",
          "type": "uint256"
        }
      ],
      "name": "viewNormalBets",
      "outputs": [
        {
          "components": [
            {
              "internalType": "uint256",
              "name": "matchId",
              "type": "uint256"
            },
            {
              "internalType": "string",
              "name": "teamNames",
              "type": "string"
            },
            {
              "internalType": "string",
              "name": "category",
              "type": "string"
            },
            {
              "internalType": "string",
              "name": "pick",
              "type": "string"
            },
            {
              "internalType": "string",
              "name": "outcome",
              "type": "string"
            },
            {
              "internalType": "bool",
              "name": "won",
              "type": "bool"
            }
          ],
          "internalType": "struct Operations.miniBets[]",
          "name": "",
          "type": "tuple[]"
        }
      ],
      "stateMutability": "view",
      "type": "function",
      "constant": true
    },
    {
      "inputs": [
        {
          "internalType": "address",
          "name": "_accountId",
          "type": "address"
        }
      ],
      "name": "viewTrackedBets",
      "outputs": [
        {
          "components": [
            {
              "internalType": "uint256",
              "name": "betId",
              "type": "uint256"
            },
            {
              "internalType": "bool",
              "name": "betFinished",
              "type": "bool"
            },
            {
              "internalType": "bool",
              "name": "betWon",
              "type": "bool"
            },
            {
              "internalType": "uint256",
              "name": "deposit",
              "type": "uint256"
            },
            {
              "internalType": "string",
              "name": "totalOdds",
              "type": "string"
            },
            {
              "internalType": "uint256",
              "name": "possiblePayout",
              "type": "uint256"
            },
            {
              "internalType": "uint256",
              "name": "timestamp",
              "type": "uint256"
            },
            {
              "internalType": "bool",
              "name": "withdrawn",
              "type": "bool"
            }
          ],
          "internalType": "struct Operations.NormalBet[]",
          "name": "",
          "type": "tuple[]"
        }
      ],
      "stateMutability": "view",
      "type": "function",
      "constant": true
    },
    {
      "inputs": [
        {
          "internalType": "string",
          "name": "a",
          "type": "string"
        },
        {
          "internalType": "string",
          "name": "b",
          "type": "string"
        }
      ],
      "name": "compareBets",
      "outputs": [
        {
          "internalType": "bool",
          "name": "",
          "type": "bool"
        }
      ],
      "stateMutability": "pure",
      "type": "function",
      "constant": true
    },
    {
      "inputs": [
        {
          "internalType": "address",
          "name": "_accountId",
          "type": "address"
        },
        {
          "internalType": "uint256",
          "name": "_betId",
          "type": "uint256"
        }
      ],
      "name": "verifyWon",
      "outputs": [],
      "stateMutability": "nonpayable",
      "type": "function"
    },
    {
      "inputs": [
        {
          "internalType": "string",
          "name": "_betResult",
          "type": "string"
        },
        {
          "internalType": "string",
          "name": "_gamingOdds",
          "type": "string"
        },
        {
          "internalType": "uint256",
          "name": "_deposit",
          "type": "uint256"
        },
        {
          "internalType": "uint256",
          "name": "_winnings",
          "type": "uint256"
        }
      ],
      "name": "stakeSpinAndWin",
      "outputs": [
        {
          "internalType": "string",
          "name": "",
          "type": "string"
        }
      ],
      "stateMutability": "payable",
      "type": "function",
      "payable": true
    },
    {
      "inputs": [
        {
          "internalType": "address",
          "name": "_accountId",
          "type": "address"
        }
      ],
      "name": "getArraySpins",
      "outputs": [
        {
          "components": [
            {
              "internalType": "uint256",
              "name": "betId",
              "type": "uint256"
            },
            {
              "internalType": "string",
              "name": "betResult",
              "type": "string"
            },
            {
              "internalType": "string",
              "name": "gamingOdds",
              "type": "string"
            },
            {
              "internalType": "uint256",
              "name": "possiblePayout",
              "type": "uint256"
            },
            {
              "internalType": "uint256",
              "name": "deposit",
              "type": "uint256"
            },
            {
              "internalType": "bool",
              "name": "withdrawn",
              "type": "bool"
            },
            {
              "internalType": "uint256",
              "name": "timestamp",
              "type": "uint256"
            }
          ],
          "internalType": "struct Operations.SpinAndWin[]",
          "name": "",
          "type": "tuple[]"
        }
      ],
      "stateMutability": "view",
      "type": "function",
      "constant": true
    },
    {
      "inputs": [
        {
          "internalType": "uint256",
          "name": "_betId",
          "type": "uint256"
        }
      ],
      "name": "withdrawArraySpinFunds",
      "outputs": [],
      "stateMutability": "nonpayable",
      "type": "function"
    },
    {
      "inputs": [
        {
          "internalType": "uint256",
          "name": "_betId",
          "type": "uint256"
        }
      ],
      "name": "withdrawWinnings",
      "outputs": [],
      "stateMutability": "nonpayable",
      "type": "function"
    },
    {
      "inputs": [
        {
          "internalType": "address payable",
          "name": "_recipient",
          "type": "address"
        }
      ],
      "name": "sendEther",
      "outputs": [],
      "stateMutability": "nonpayable",
      "type": "function"
    },
    {
      "inputs": [],
      "name": "getBalance",
      "outputs": [
        {
          "internalType": "uint256",
          "name": "",
          "type": "uint256"
        }
      ],
      "stateMutability": "view",
      "type": "function",
      "constant": true
    }
  ],
  "bytecode": "0x6080604052336000806101000a81548173ffffffffffffffffffffffffffffffffffffffff021916908373ffffffffffffffffffffffffffffffffffffffff1602179055506155a1806100536000396000f3fe60806040526004361061016a5760003560e01c80634393b417116100d1578063805ad5cc1161008a578063c53da48111610064578063c53da481146105b8578063cf094497146105f5578063d5da04b814610620578063e4df829e1461064957610171565b8063805ad5cc1461050e578063af768ee314610551578063b8c56ff01461058f57610171565b80634393b417146103d357806348c981e21461041057806363cfedb0146104395780636787e39a1461047d57806370f47797146104a857806376f75552146104d157610171565b80632801605911610123578063280160591461029e5780632a1e6ac8146102c95780632a2f27d9146102f2578063336989ae14610322578063364f77dd146103605780633a5d4b86146103a357610171565b806304c63ab41461017357806310c3122a146101b657806312065fe0146101f85780631378d80614610223578063147947021461024c5780631cd6efce1461027557610171565b3661017157005b005b34801561017f57600080fd5b5061019a60048036038101906101959190613f4f565b610686565b6040516101ad9796959493929190614052565b60405180910390f35b3480156101c257600080fd5b506101dd60048036038101906101d891906140cf565b610802565b6040516101ef96959493929190614122565b60405180910390f35b34801561020457600080fd5b5061020d610a95565b60405161021a919061419f565b60405180910390f35b34801561022f57600080fd5b5061024a600480360381019061024591906142ef565b610a9d565b005b34801561025857600080fd5b50610273600480360381019061026e9190614338565b610b77565b005b34801561028157600080fd5b5061029c60048036038101906102979190613f4f565b610e2b565b005b3480156102aa57600080fd5b506102b361227f565b6040516102c0919061419f565b60405180910390f35b3480156102d557600080fd5b506102f060048036038101906102eb9190614541565b612285565b005b61030c600480360381019061030791906147ba565b612458565b6040516103199190614859565b60405180910390f35b34801561032e57600080fd5b506103496004803603810190610344919061487b565b61298d565b6040516103579291906148b7565b60405180910390f35b34801561036c57600080fd5b5061038760048036038101906103829190614338565b612a59565b60405161039a97969594939291906148e7565b60405180910390f35b6103bd60048036038101906103b89190614964565b612bab565b6040516103ca9190614859565b60405180910390f35b3480156103df57600080fd5b506103fa60048036038101906103f59190614a03565b612e30565b6040516104079190614a7b565b60405180910390f35b34801561041c57600080fd5b5061043760048036038101906104329190614ad4565b612e4b565b005b34801561044557600080fd5b50610460600480360381019061045b9190613f4f565b612f2b565b604051610474989796959493929190614b01565b60405180910390f35b34801561048957600080fd5b5061049261303f565b60405161049f919061419f565b60405180910390f35b3480156104b457600080fd5b506104cf60048036038101906104ca9190614b86565b613045565b005b3480156104dd57600080fd5b506104f860048036038101906104f3919061487b565b61320d565b6040516105059190614da9565b60405180910390f35b34801561051a57600080fd5b5061053560048036038101906105309190614dcb565b6133b7565b60405161054897969594939291906148e7565b60405180910390f35b34801561055d57600080fd5b5061057860048036038101906105739190614338565b613526565b604051610586929190614e0b565b60405180910390f35b34801561059b57600080fd5b506105b660048036038101906105b19190614e34565b61356a565b005b3480156105c457600080fd5b506105df60048036038101906105da9190613f4f565b613628565b6040516105ec919061506e565b60405180910390f35b34801561060157600080fd5b5061060a613945565b604051610617919061419f565b60405180910390f35b34801561062c57600080fd5b5061064760048036038101906106429190614338565b61394b565b005b34801561065557600080fd5b50610670600480360381019061066b919061487b565b613bff565b60405161067d91906151f5565b60405180910390f35b600560205281600052604060002081815481106106a257600080fd5b9060005260206000209060070201600091509150508060000154908060010180546106cc90615246565b80601f01602080910402602001604051908101604052809291908181526020018280546106f890615246565b80156107455780601f1061071a57610100808354040283529160200191610745565b820191906000526020600020905b81548152906001019060200180831161072857829003601f168201915b50505050509080600201805461075a90615246565b80601f016020809104026020016040519081016040528092919081815260200182805461078690615246565b80156107d35780601f106107a8576101008083540402835291602001916107d3565b820191906000526020600020905b8154815290600101906020018083116107b657829003601f168201915b5050505050908060030154908060040154908060050160009054906101000a900460ff16908060060154905087565b6006602052826000526040600020602052816000526040600020818154811061082a57600080fd5b9060005260206000209060060201600092509250505080600001549080600101805461085590615246565b80601f016020809104026020016040519081016040528092919081815260200182805461088190615246565b80156108ce5780601f106108a3576101008083540402835291602001916108ce565b820191906000526020600020905b8154815290600101906020018083116108b157829003601f168201915b5050505050908060020180546108e390615246565b80601f016020809104026020016040519081016040528092919081815260200182805461090f90615246565b801561095c5780601f106109315761010080835404028352916020019161095c565b820191906000526020600020905b81548152906001019060200180831161093f57829003601f168201915b50505050509080600301805461097190615246565b80601f016020809104026020016040519081016040528092919081815260200182805461099d90615246565b80156109ea5780601f106109bf576101008083540402835291602001916109ea565b820191906000526020600020905b8154815290600101906020018083116109cd57829003601f168201915b5050505050908060040180546109ff90615246565b80601f0160208091040260200160405190810160405280929190818152602001828054610a2b90615246565b8015610a785780601f10610a4d57610100808354040283529160200191610a78565b820191906000526020600020905b815481529060010190602001808311610a5b57829003601f168201915b5050505050908060050160009054906101000a900460ff16905086565b600047905090565b600033905060405180604001604052808273ffffffffffffffffffffffffffffffffffffffff16815260200183815250600460008373ffffffffffffffffffffffffffffffffffffffff1673ffffffffffffffffffffffffffffffffffffffff16815260200190815260200160002060008201518160000160006101000a81548173ffffffffffffffffffffffffffffffffffffffff021916908373ffffffffffffffffffffffffffffffffffffffff1602179055506020820151816001019080519060200190610b6f929190613e04565b509050505050565b60003390506000600760003373ffffffffffffffffffffffffffffffffffffffff1673ffffffffffffffffffffffffffffffffffffffff16815260200190815260200160002080549050905060005b81811015610e255783600760003373ffffffffffffffffffffffffffffffffffffffff1673ffffffffffffffffffffffffffffffffffffffff1681526020019081526020016000208281548110610c2057610c1f615277565b5b90600052602060002090600702016000015403610e125760001515600760003373ffffffffffffffffffffffffffffffffffffffff1673ffffffffffffffffffffffffffffffffffffffff1681526020019081526020016000208281548110610c8c57610c8b615277565b5b906000526020600020906007020160060160009054906101000a900460ff16151514610ced576040517f08c379a0000000000000000000000000000000000000000000000000000000008152600401610ce4906152f2565b60405180910390fd5b8273ffffffffffffffffffffffffffffffffffffffff166108fc600760003373ffffffffffffffffffffffffffffffffffffffff1673ffffffffffffffffffffffffffffffffffffffff1681526020019081526020016000208381548110610d5857610d57615277565b5b9060005260206000209060070201600401549081150290604051600060405180830381858888f19350505050158015610d95573d6000803e3d6000fd5b506001600760003373ffffffffffffffffffffffffffffffffffffffff1673ffffffffffffffffffffffffffffffffffffffff1681526020019081526020016000208281548110610de957610de8615277565b5b906000526020600020906007020160060160006101000a81548160ff0219169083151502179055505b8080610e1d90615341565b915050610bc6565b50505050565b6000600660008473ffffffffffffffffffffffffffffffffffffffff1673ffffffffffffffffffffffffffffffffffffffff16815260200190815260200160002060008381526020019081526020016000208054905090506000600660008573ffffffffffffffffffffffffffffffffffffffff1673ffffffffffffffffffffffffffffffffffffffff1681526020019081526020016000206000848152602001908152602001600020805490509050600080600090505b8381108015610f7b5750600160086000600660008a73ffffffffffffffffffffffffffffffffffffffff1673ffffffffffffffffffffffffffffffffffffffff16815260200190815260200160002060008981526020019081526020016000208481548110610f5557610f54615277565b5b906000526020600020906006020160000154815260200190815260200160002060060154145b15611e9057600060086000600660008a73ffffffffffffffffffffffffffffffffffffffff1673ffffffffffffffffffffffffffffffffffffffff16815260200190815260200160002060008981526020019081526020016000208481548110610fe857610fe7615277565b5b9060005260206000209060060201600001548152602001908152602001600020600001549050600060086000600660008b73ffffffffffffffffffffffffffffffffffffffff1673ffffffffffffffffffffffffffffffffffffffff16815260200190815260200160002060008a8152602001908152602001600020858154811061107657611075615277565b5b9060005260206000209060060201600001548152602001908152602001600020600301549050600060086000600660008c73ffffffffffffffffffffffffffffffffffffffff1673ffffffffffffffffffffffffffffffffffffffff16815260200190815260200160002060008b8152602001908152602001600020868154811061110457611103615277565b5b906000526020600020906006020160000154815260200190815260200160002060040154905060606000600660008c73ffffffffffffffffffffffffffffffffffffffff1673ffffffffffffffffffffffffffffffffffffffff16815260200190815260200160002060008b815260200190815260200160002086815481106111905761118f615277565b5b906000526020600020906006020160020180546111ac90615246565b80601f01602080910402602001604051908101604052809291908181526020018280546111d890615246565b80156112255780601f106111fa57610100808354040283529160200191611225565b820191906000526020600020905b81548152906001019060200180831161120857829003601f168201915b505050505090506001151561126f826040518060400160405280600381526020017f3158320000000000000000000000000000000000000000000000000000000000815250612e30565b15151480156113075750600160086000600660008f73ffffffffffffffffffffffffffffffffffffffff1673ffffffffffffffffffffffffffffffffffffffff16815260200190815260200160002060008e815260200190815260200160002089815481106112e1576112e0615277565b5b906000526020600020906006020160000154815260200190815260200160002060060154145b156113d55782841115611351576040518060400160405280600181526020017f310000000000000000000000000000000000000000000000000000000000000081525091506113d0565b83831115611396576040518060400160405280600181526020017f320000000000000000000000000000000000000000000000000000000000000081525091506113cf565b6040518060400160405280600181526020017f580000000000000000000000000000000000000000000000000000000000000081525091505b5b611773565b60011515611418826040518060400160405280600581526020017f47472f4e47000000000000000000000000000000000000000000000000000000815250612e30565b15151480156114b05750600160086000600660008f73ffffffffffffffffffffffffffffffffffffffff1673ffffffffffffffffffffffffffffffffffffffff16815260200190815260200160002060008e8152602001908152602001600020898154811061148a57611489615277565b5b906000526020600020906006020160000154815260200190815260200160002060060154145b15611601576000841180156114c55750600083115b15611507576040518060400160405280600281526020017f474700000000000000000000000000000000000000000000000000000000000081525091506115fc565b6000841180156115175750600083145b15611559576040518060400160405280600281526020017f4e4700000000000000000000000000000000000000000000000000000000000081525091506115fb565b6000841480156115695750600083115b156115ab576040518060400160405280600281526020017f4e4700000000000000000000000000000000000000000000000000000000000081525091506115fa565b6000841480156115bb5750600083145b156115f9576040518060400160405280600281526020017f4e4700000000000000000000000000000000000000000000000000000000000081525091505b5b5b5b611772565b60011515611644826040518060400160405280600581526020017f4f562f554e000000000000000000000000000000000000000000000000000000815250612e30565b15151480156116dc5750600160086000600660008f73ffffffffffffffffffffffffffffffffffffffff1673ffffffffffffffffffffffffffffffffffffffff16815260200190815260200160002060008e815260200190815260200160002089815481106116b6576116b5615277565b5b906000526020600020906006020160000154815260200190815260200160002060060154145b1561177157600083856116ef9190615389565b905060038110611736576040518060400160405280600481526020017f4f56323500000000000000000000000000000000000000000000000000000000815250925061176f565b6040518060400160405280600481526020017f554e32350000000000000000000000000000000000000000000000000000000081525092505b505b5b5b81600660008d73ffffffffffffffffffffffffffffffffffffffff1673ffffffffffffffffffffffffffffffffffffffff16815260200190815260200160002060008c815260200190815260200160002087815481106117d6576117d5615277565b5b906000526020600020906006020160040190805190602001906117fa929190613e04565b50600115156119ff600660008e73ffffffffffffffffffffffffffffffffffffffff1673ffffffffffffffffffffffffffffffffffffffff16815260200190815260200160002060008d8152602001908152602001600020888154811061186457611863615277565b5b9060005260206000209060060201600401805461188090615246565b80601f01602080910402602001604051908101604052809291908181526020018280546118ac90615246565b80156118f95780601f106118ce576101008083540402835291602001916118f9565b820191906000526020600020905b8154815290600101906020018083116118dc57829003601f168201915b5050505050600660008f73ffffffffffffffffffffffffffffffffffffffff1673ffffffffffffffffffffffffffffffffffffffff16815260200190815260200160002060008e815260200190815260200160002089815481106119605761195f615277565b5b9060005260206000209060060201600301805461197c90615246565b80601f01602080910402602001604051908101604052809291908181526020018280546119a890615246565b80156119f55780601f106119ca576101008083540402835291602001916119f5565b820191906000526020600020905b8154815290600101906020018083116119d857829003601f168201915b5050505050612e30565b1515148015611a975750600160086000600660008f73ffffffffffffffffffffffffffffffffffffffff1673ffffffffffffffffffffffffffffffffffffffff16815260200190815260200160002060008e81526020019081526020016000208981548110611a7157611a70615277565b5b906000526020600020906006020160000154815260200190815260200160002060060154145b15611b2d576001600660008d73ffffffffffffffffffffffffffffffffffffffff1673ffffffffffffffffffffffffffffffffffffffff16815260200190815260200160002060008c81526020019081526020016000208781548110611b0057611aff615277565b5b906000526020600020906006020160050160006101000a81548160ff021916908315150217905550611e6a565b60001515611d31600660008e73ffffffffffffffffffffffffffffffffffffffff1673ffffffffffffffffffffffffffffffffffffffff16815260200190815260200160002060008d81526020019081526020016000208881548110611b9657611b95615277565b5b90600052602060002090600602016004018054611bb290615246565b80601f0160208091040260200160405190810160405280929190818152602001828054611bde90615246565b8015611c2b5780601f10611c0057610100808354040283529160200191611c2b565b820191906000526020600020905b815481529060010190602001808311611c0e57829003601f168201915b5050505050600660008f73ffffffffffffffffffffffffffffffffffffffff1673ffffffffffffffffffffffffffffffffffffffff16815260200190815260200160002060008e81526020019081526020016000208981548110611c9257611c91615277565b5b90600052602060002090600602016003018054611cae90615246565b80601f0160208091040260200160405190810160405280929190818152602001828054611cda90615246565b8015611d275780601f10611cfc57610100808354040283529160200191611d27565b820191906000526020600020905b815481529060010190602001808311611d0a57829003601f168201915b5050505050612e30565b1515148015611dc95750600160086000600660008f73ffffffffffffffffffffffffffffffffffffffff1673ffffffffffffffffffffffffffffffffffffffff16815260200190815260200160002060008e81526020019081526020016000208981548110611da357611da2615277565b5b906000526020600020906006020160000154815260200190815260200160002060060154145b15611e69576000600660008d73ffffffffffffffffffffffffffffffffffffffff1673ffffffffffffffffffffffffffffffffffffffff16815260200190815260200160002060008c81526020019081526020016000208781548110611e3257611e31615277565b5b906000526020600020906006020160050160006101000a81548160ff0219169083151502179055508680611e6590615341565b9750505b5b8780611e75906153df565b98505050505050508080611e8890615341565b915050610ee3565b506000611e9c8661320d565b51905060005b8181108015611eb15750600084145b156120905785600760008973ffffffffffffffffffffffffffffffffffffffff1673ffffffffffffffffffffffffffffffffffffffff1681526020019081526020016000208281548110611f0857611f07615277565b5b9060005260206000209060070201600001540361207d57600183101561207c576001600760008973ffffffffffffffffffffffffffffffffffffffff1673ffffffffffffffffffffffffffffffffffffffff1681526020019081526020016000208281548110611f7b57611f7a615277565b5b906000526020600020906007020160010160006101000a81548160ff0219169083151502179055506001600760008973ffffffffffffffffffffffffffffffffffffffff1673ffffffffffffffffffffffffffffffffffffffff1681526020019081526020016000208281548110611ff657611ff5615277565b5b906000526020600020906007020160010160016101000a81548160ff021916908315150217905550600a6000878152602001908152602001600020600080820160006101000a81549073ffffffffffffffffffffffffffffffffffffffff02191690556001820160009055505060036000815480929190612076906153df565b91905055505b5b808061208890615341565b915050611ea2565b5060005b818110156122765785600760008973ffffffffffffffffffffffffffffffffffffffff1673ffffffffffffffffffffffffffffffffffffffff16815260200190815260200160002082815481106120ee576120ed615277565b5b90600052602060002090600702016000015403612263576000831115612262576001600760008973ffffffffffffffffffffffffffffffffffffffff1673ffffffffffffffffffffffffffffffffffffffff168152602001908152602001600020828154811061216157612160615277565b5b906000526020600020906007020160010160006101000a81548160ff0219169083151502179055506000600760008973ffffffffffffffffffffffffffffffffffffffff1673ffffffffffffffffffffffffffffffffffffffff16815260200190815260200160002082815481106121dc576121db615277565b5b906000526020600020906007020160010160016101000a81548160ff021916908315150217905550600a6000878152602001908152602001600020600080820160006101000a81549073ffffffffffffffffffffffffffffffffffffffff0219169055600182016000905550506003600081548092919061225c906153df565b91905055505b5b808061226e90615341565b915050612094565b50505050505050565b60015481565b60005b825181101561245357600960008381526020019081526020016000206040518060e001604052808584815181106122c2576122c1615277565b5b60200260200101516000015181526020018584815181106122e6576122e5615277565b5b602002602001015160200151815260200185848151811061230a57612309615277565b5b602002602001015160400151815260200185848151811061232e5761232d615277565b5b602002602001015160600151815260200185848151811061235257612351615277565b5b602002602001015160800151815260200185848151811061237657612375615277565b5b602002602001015160a00151815260200185848151811061239a57612399615277565b5b602002602001015160c0015181525090806001815401808255809150506001900390600052602060002090600702016000909190919091506000820151816000015560208201518160010190805190602001906123f8929190613e04565b506040820151816002019080519060200190612415929190613e04565b50606082015181600301556080820151816004015560a0820151816005015560c082015181600601555050808061244b90615341565b915050612288565b505050565b60606002600081548092919061246d90615341565b919050555060006040518060400160405280600781526020017f70656e64696e67000000000000000000000000000000000000000000000000008152509050600033905060003090506000808273ffffffffffffffffffffffffffffffffffffffff16346040516124dd90615439565b60006040518083038185875af1925050503d806000811461251a576040519150601f19603f3d011682016040523d82523d6000602084013e61251f565b606091505b509150915060005b8a5181101561270657600660008673ffffffffffffffffffffffffffffffffffffffff1673ffffffffffffffffffffffffffffffffffffffff168152602001908152602001600020600060025481526020019081526020016000206040518060c001604052808d84815181106125a05761259f615277565b5b60200260200101516000015181526020018d84815181106125c4576125c3615277565b5b60200260200101516020015181526020018d84815181106125e8576125e7615277565b5b60200260200101516040015181526020018d848151811061260c5761260b615277565b5b6020026020010151606001518152602001888152602001600015158152509080600181540180825580915050600190039060005260206000209060060201600090919091909150600082015181600001556020820151816001019080519060200190612679929190613e04565b506040820151816002019080519060200190612696929190613e04565b5060608201518160030190805190602001906126b3929190613e04565b5060808201518160040190805190602001906126d0929190613e04565b5060a08201518160050160006101000a81548160ff021916908315150217905550505080806126fe90615341565b915050612527565b50600760008573ffffffffffffffffffffffffffffffffffffffff1673ffffffffffffffffffffffffffffffffffffffff16815260200190815260200160002060405180610100016040528060025481526020016000151581526020016000151581526020018b81526020018a81526020018981526020014281526020016000151581525090806001815401808255809150506001900390600052602060002090600702016000909190919091506000820151816000015560208201518160010160006101000a81548160ff02191690831515021790555060408201518160010160016101000a81548160ff021916908315150217905550606082015181600201556080820151816003019080519060200190612824929190613e04565b5060a0820151816004015560c0820151816005015560e08201518160060160006101000a81548160ff02191690831515021790555050506003600081548092919061286e90615341565b919050555060405180604001604052803373ffffffffffffffffffffffffffffffffffffffff168152602001600254815250600a6000600354815260200190815260200160002060008201518160000160006101000a81548173ffffffffffffffffffffffffffffffffffffffff021916908373ffffffffffffffffffffffffffffffffffffffff160217905550602082015181600101559050507fdf981713653445013a647b7bd1e49edd6253a963c021fcf9db2e3248e27015996002548a4233604051612940949392919061544e565b60405180910390a16040518060400160405280601081526020017f626574207375636365737366756c6c790000000000000000000000000000000081525095505050505050949350505050565b60046020528060005260406000206000915090508060000160009054906101000a900473ffffffffffffffffffffffffffffffffffffffff16908060010180546129d690615246565b80601f0160208091040260200160405190810160405280929190818152602001828054612a0290615246565b8015612a4f5780601f10612a2457610100808354040283529160200191612a4f565b820191906000526020600020905b815481529060010190602001808311612a3257829003601f168201915b5050505050905082565b6008602052806000526040600020600091509050806000015490806001018054612a8290615246565b80601f0160208091040260200160405190810160405280929190818152602001828054612aae90615246565b8015612afb5780601f10612ad057610100808354040283529160200191612afb565b820191906000526020600020905b815481529060010190602001808311612ade57829003601f168201915b505050505090806002018054612b1090615246565b80601f0160208091040260200160405190810160405280929190818152602001828054612b3c90615246565b8015612b895780601f10612b5e57610100808354040283529160200191612b89565b820191906000526020600020905b815481529060010190602001808311612b6c57829003601f168201915b5050505050908060030154908060040154908060050154908060060154905087565b606060016000815480929190612bc090615341565b919050555060003090506000808273ffffffffffffffffffffffffffffffffffffffff1686604051612bf190615439565b60006040518083038185875af1925050503d8060008114612c2e576040519150601f19603f3d011682016040523d82523d6000602084013e612c33565b606091505b509150915081612c78576040517f08c379a0000000000000000000000000000000000000000000000000000000008152600401612c6f906154df565b60405180910390fd5b6000859050600560003373ffffffffffffffffffffffffffffffffffffffff1673ffffffffffffffffffffffffffffffffffffffff1681526020019081526020016000206040518060e0016040528060015481526020018b81526020018a8152602001888152602001898152602001600015158152602001428152509080600181540180825580915050600190039060005260206000209060070201600090919091909150600082015181600001556020820151816001019080519060200190612d43929190613e04565b506040820151816002019080519060200190612d60929190613e04565b50606082015181600301556080820151816004015560a08201518160050160006101000a81548160ff02191690831515021790555060c0820151816006015550506000861115612deb576040518060400160405280600781526020017f62657420776f6e00000000000000000000000000000000000000000000000000815250945050505050612e28565b6040518060400160405280600881526020017f626574206c6f73740000000000000000000000000000000000000000000000008152509450505050505b949350505050565b60008180519060200120838051906020012014905092915050565b60008054906101000a900473ffffffffffffffffffffffffffffffffffffffff1673ffffffffffffffffffffffffffffffffffffffff163373ffffffffffffffffffffffffffffffffffffffff1614612ed9576040517f08c379a0000000000000000000000000000000000000000000000000000000008152600401612ed09061554b565b60405180910390fd5b8073ffffffffffffffffffffffffffffffffffffffff166108fc670de0b6b3a76400009081150290604051600060405180830381858888f19350505050158015612f27573d6000803e3d6000fd5b5050565b60076020528160005260406000208181548110612f4757600080fd5b9060005260206000209060070201600091509150508060000154908060010160009054906101000a900460ff16908060010160019054906101000a900460ff1690806002015490806003018054612f9d90615246565b80601f0160208091040260200160405190810160405280929190818152602001828054612fc990615246565b80156130165780601f10612feb57610100808354040283529160200191613016565b820191906000526020600020905b815481529060010190602001808311612ff957829003601f168201915b5050505050908060040154908060050154908060060160009054906101000a900460ff16905088565b60035481565b60005b8151811015613209576040518060e0016040528083838151811061306f5761306e615277565b5b602002602001015160000151815260200183838151811061309357613092615277565b5b60200260200101516020015181526020018383815181106130b7576130b6615277565b5b60200260200101516040015181526020018383815181106130db576130da615277565b5b60200260200101516060015181526020018383815181106130ff576130fe615277565b5b602002602001015160800151815260200183838151811061312357613122615277565b5b602002602001015160a00151815260200183838151811061314757613146615277565b5b602002602001015160c001518152506008600084848151811061316d5761316c615277565b5b60200260200101516000015181526020019081526020016000206000820151816000015560208201518160010190805190602001906131ad929190613e04565b5060408201518160020190805190602001906131ca929190613e04565b50606082015181600301556080820151816004015560a0820151816005015560c08201518160060155905050808061320190615341565b915050613048565b5050565b6060600760008373ffffffffffffffffffffffffffffffffffffffff1673ffffffffffffffffffffffffffffffffffffffff168152602001908152602001600020805480602002602001604051908101604052809291908181526020016000905b828210156133ac578382906000526020600020906007020160405180610100016040529081600082015481526020016001820160009054906101000a900460ff161515151581526020016001820160019054906101000a900460ff16151515158152602001600282015481526020016003820180546132ec90615246565b80601f016020809104026020016040519081016040528092919081815260200182805461331890615246565b80156133655780601f1061333a57610100808354040283529160200191613365565b820191906000526020600020905b81548152906001019060200180831161334857829003601f168201915b5050505050815260200160048201548152602001600582015481526020016006820160009054906101000a900460ff1615151515815250508152602001906001019061326e565b505050509050919050565b600960205281600052604060002081815481106133d357600080fd5b9060005260206000209060070201600091509150508060000154908060010180546133fd90615246565b80601f016020809104026020016040519081016040528092919081815260200182805461342990615246565b80156134765780601f1061344b57610100808354040283529160200191613476565b820191906000526020600020905b81548152906001019060200180831161345957829003601f168201915b50505050509080600201805461348b90615246565b80601f01602080910402602001604051908101604052809291908181526020018280546134b790615246565b80156135045780601f106134d957610100808354040283529160200191613504565b820191906000526020600020905b8154815290600101906020018083116134e757829003601f168201915b5050505050908060030154908060040154908060050154908060060154905087565b600a6020528060005260406000206000915090508060000160009054906101000a900473ffffffffffffffffffffffffffffffffffffffff16908060010154905082565b6040518060e0016040528088815260200187815260200186815260200185815260200184815260200183815260200182815250600860008981526020019081526020016000206000820151816000015560208201518160010190805190602001906135d6929190613e04565b5060408201518160020190805190602001906135f3929190613e04565b50606082015181600301556080820151816004015560a0820151816005015560c0820151816006015590505050505050505050565b6060600660008473ffffffffffffffffffffffffffffffffffffffff1673ffffffffffffffffffffffffffffffffffffffff1681526020019081526020016000206000838152602001908152602001600020805480602002602001604051908101604052809291908181526020016000905b8282101561393957838290600052602060002090600602016040518060c0016040529081600082015481526020016001820180546136d790615246565b80601f016020809104026020016040519081016040528092919081815260200182805461370390615246565b80156137505780601f1061372557610100808354040283529160200191613750565b820191906000526020600020905b81548152906001019060200180831161373357829003601f168201915b5050505050815260200160028201805461376990615246565b80601f016020809104026020016040519081016040528092919081815260200182805461379590615246565b80156137e25780601f106137b7576101008083540402835291602001916137e2565b820191906000526020600020905b8154815290600101906020018083116137c557829003601f168201915b505050505081526020016003820180546137fb90615246565b80601f016020809104026020016040519081016040528092919081815260200182805461382790615246565b80156138745780601f1061384957610100808354040283529160200191613874565b820191906000526020600020905b81548152906001019060200180831161385757829003601f168201915b5050505050815260200160048201805461388d90615246565b80601f01602080910402602001604051908101604052809291908181526020018280546138b990615246565b80156139065780601f106138db57610100808354040283529160200191613906565b820191906000526020600020905b8154815290600101906020018083116138e957829003601f168201915b505050505081526020016005820160009054906101000a900460ff1615151515815250508152602001906001019061369a565b50505050905092915050565b60025481565b60003390506000600560003373ffffffffffffffffffffffffffffffffffffffff1673ffffffffffffffffffffffffffffffffffffffff16815260200190815260200160002080549050905060005b81811015613bf95783600560003373ffffffffffffffffffffffffffffffffffffffff1673ffffffffffffffffffffffffffffffffffffffff16815260200190815260200160002082815481106139f4576139f3615277565b5b90600052602060002090600702016000015403613be65760001515600560003373ffffffffffffffffffffffffffffffffffffffff1673ffffffffffffffffffffffffffffffffffffffff1681526020019081526020016000208281548110613a6057613a5f615277565b5b906000526020600020906007020160050160009054906101000a900460ff16151514613ac1576040517f08c379a0000000000000000000000000000000000000000000000000000000008152600401613ab8906152f2565b60405180910390fd5b8273ffffffffffffffffffffffffffffffffffffffff166108fc600560003373ffffffffffffffffffffffffffffffffffffffff1673ffffffffffffffffffffffffffffffffffffffff1681526020019081526020016000208381548110613b2c57613b2b615277565b5b9060005260206000209060070201600301549081150290604051600060405180830381858888f19350505050158015613b69573d6000803e3d6000fd5b506001600560003373ffffffffffffffffffffffffffffffffffffffff1673ffffffffffffffffffffffffffffffffffffffff1681526020019081526020016000208281548110613bbd57613bbc615277565b5b906000526020600020906007020160050160006101000a81548160ff0219169083151502179055505b8080613bf190615341565b91505061399a565b50505050565b6060600560008373ffffffffffffffffffffffffffffffffffffffff1673ffffffffffffffffffffffffffffffffffffffff168152602001908152602001600020805480602002602001604051908101604052809291908181526020016000905b82821015613df957838290600052602060002090600702016040518060e001604052908160008201548152602001600182018054613c9d90615246565b80601f0160208091040260200160405190810160405280929190818152602001828054613cc990615246565b8015613d165780601f10613ceb57610100808354040283529160200191613d16565b820191906000526020600020905b815481529060010190602001808311613cf957829003601f168201915b50505050508152602001600282018054613d2f90615246565b80601f0160208091040260200160405190810160405280929190818152602001828054613d5b90615246565b8015613da85780601f10613d7d57610100808354040283529160200191613da8565b820191906000526020600020905b815481529060010190602001808311613d8b57829003601f168201915b5050505050815260200160038201548152602001600482015481526020016005820160009054906101000a900460ff1615151515815260200160068201548152505081526020019060010190613c60565b505050509050919050565b828054613e1090615246565b90600052602060002090601f016020900481019282613e325760008555613e79565b82601f10613e4b57805160ff1916838001178555613e79565b82800160010185558215613e79579182015b82811115613e78578251825591602001919060010190613e5d565b5b509050613e869190613e8a565b5090565b5b80821115613ea3576000816000905550600101613e8b565b5090565b6000604051905090565b600080fd5b600080fd5b600073ffffffffffffffffffffffffffffffffffffffff82169050919050565b6000613ee682613ebb565b9050919050565b613ef681613edb565b8114613f0157600080fd5b50565b600081359050613f1381613eed565b92915050565b6000819050919050565b613f2c81613f19565b8114613f3757600080fd5b50565b600081359050613f4981613f23565b92915050565b60008060408385031215613f6657613f65613eb1565b5b6000613f7485828601613f04565b9250506020613f8585828601613f3a565b9150509250929050565b613f9881613f19565b82525050565b600081519050919050565b600082825260208201905092915050565b60005b83811015613fd8578082015181840152602081019050613fbd565b83811115613fe7576000848401525b50505050565b6000601f19601f8301169050919050565b600061400982613f9e565b6140138185613fa9565b9350614023818560208601613fba565b61402c81613fed565b840191505092915050565b60008115159050919050565b61404c81614037565b82525050565b600060e082019050614067600083018a613f8f565b81810360208301526140798189613ffe565b9050818103604083015261408d8188613ffe565b905061409c6060830187613f8f565b6140a96080830186613f8f565b6140b660a0830185614043565b6140c360c0830184613f8f565b98975050505050505050565b6000806000606084860312156140e8576140e7613eb1565b5b60006140f686828701613f04565b935050602061410786828701613f3a565b925050604061411886828701613f3a565b9150509250925092565b600060c0820190506141376000830189613f8f565b81810360208301526141498188613ffe565b9050818103604083015261415d8187613ffe565b905081810360608301526141718186613ffe565b905081810360808301526141858185613ffe565b905061419460a0830184614043565b979650505050505050565b60006020820190506141b46000830184613f8f565b92915050565b600080fd5b600080fd5b7f4e487b7100000000000000000000000000000000000000000000000000000000600052604160045260246000fd5b6141fc82613fed565b810181811067ffffffffffffffff8211171561421b5761421a6141c4565b5b80604052505050565b600061422e613ea7565b905061423a82826141f3565b919050565b600067ffffffffffffffff82111561425a576142596141c4565b5b61426382613fed565b9050602081019050919050565b82818337600083830152505050565b600061429261428d8461423f565b614224565b9050828152602081018484840111156142ae576142ad6141bf565b5b6142b9848285614270565b509392505050565b600082601f8301126142d6576142d56141ba565b5b81356142e684826020860161427f565b91505092915050565b60006020828403121561430557614304613eb1565b5b600082013567ffffffffffffffff81111561432357614322613eb6565b5b61432f848285016142c1565b91505092915050565b60006020828403121561434e5761434d613eb1565b5b600061435c84828501613f3a565b91505092915050565b600067ffffffffffffffff8211156143805761437f6141c4565b5b602082029050602081019050919050565b600080fd5b600080fd5b600080fd5b600060e082840312156143b6576143b5614396565b5b6143c060e0614224565b905060006143d084828501613f3a565b600083015250602082013567ffffffffffffffff8111156143f4576143f361439b565b5b614400848285016142c1565b602083015250604082013567ffffffffffffffff8111156144245761442361439b565b5b614430848285016142c1565b604083015250606061444484828501613f3a565b606083015250608061445884828501613f3a565b60808301525060a061446c84828501613f3a565b60a08301525060c061448084828501613f3a565b60c08301525092915050565b600061449f61449a84614365565b614224565b905080838252602082019050602084028301858111156144c2576144c1614391565b5b835b8181101561450957803567ffffffffffffffff8111156144e7576144e66141ba565b5b8086016144f489826143a0565b855260208501945050506020810190506144c4565b5050509392505050565b600082601f830112614528576145276141ba565b5b813561453884826020860161448c565b91505092915050565b6000806040838503121561455857614557613eb1565b5b600083013567ffffffffffffffff81111561457657614575613eb6565b5b61458285828601614513565b925050602061459385828601613f3a565b9150509250929050565b600067ffffffffffffffff8211156145b8576145b76141c4565b5b602082029050602081019050919050565b6145d281614037565b81146145dd57600080fd5b50565b6000813590506145ef816145c9565b92915050565b600060c0828403121561460b5761460a614396565b5b61461560c0614224565b9050600061462584828501613f3a565b600083015250602082013567ffffffffffffffff8111156146495761464861439b565b5b614655848285016142c1565b602083015250604082013567ffffffffffffffff8111156146795761467861439b565b5b614685848285016142c1565b604083015250606082013567ffffffffffffffff8111156146a9576146a861439b565b5b6146b5848285016142c1565b606083015250608082013567ffffffffffffffff8111156146d9576146d861439b565b5b6146e5848285016142c1565b60808301525060a06146f9848285016145e0565b60a08301525092915050565b60006147186147138461459d565b614224565b9050808382526020820190506020840283018581111561473b5761473a614391565b5b835b8181101561478257803567ffffffffffffffff8111156147605761475f6141ba565b5b80860161476d89826145f5565b8552602085019450505060208101905061473d565b5050509392505050565b600082601f8301126147a1576147a06141ba565b5b81356147b1848260208601614705565b91505092915050565b600080600080608085870312156147d4576147d3613eb1565b5b600085013567ffffffffffffffff8111156147f2576147f1613eb6565b5b6147fe8782880161478c565b945050602061480f87828801613f3a565b935050604085013567ffffffffffffffff8111156148305761482f613eb6565b5b61483c878288016142c1565b925050606061484d87828801613f3a565b91505092959194509250565b600060208201905081810360008301526148738184613ffe565b905092915050565b60006020828403121561489157614890613eb1565b5b600061489f84828501613f04565b91505092915050565b6148b181613edb565b82525050565b60006040820190506148cc60008301856148a8565b81810360208301526148de8184613ffe565b90509392505050565b600060e0820190506148fc600083018a613f8f565b818103602083015261490e8189613ffe565b905081810360408301526149228188613ffe565b90506149316060830187613f8f565b61493e6080830186613f8f565b61494b60a0830185613f8f565b61495860c0830184613f8f565b98975050505050505050565b6000806000806080858703121561497e5761497d613eb1565b5b600085013567ffffffffffffffff81111561499c5761499b613eb6565b5b6149a8878288016142c1565b945050602085013567ffffffffffffffff8111156149c9576149c8613eb6565b5b6149d5878288016142c1565b93505060406149e687828801613f3a565b92505060606149f787828801613f3a565b91505092959194509250565b60008060408385031215614a1a57614a19613eb1565b5b600083013567ffffffffffffffff811115614a3857614a37613eb6565b5b614a44858286016142c1565b925050602083013567ffffffffffffffff811115614a6557614a64613eb6565b5b614a71858286016142c1565b9150509250929050565b6000602082019050614a906000830184614043565b92915050565b6000614aa182613ebb565b9050919050565b614ab181614a96565b8114614abc57600080fd5b50565b600081359050614ace81614aa8565b92915050565b600060208284031215614aea57614ae9613eb1565b5b6000614af884828501614abf565b91505092915050565b600061010082019050614b17600083018b613f8f565b614b24602083018a614043565b614b316040830189614043565b614b3e6060830188613f8f565b8181036080830152614b508187613ffe565b9050614b5f60a0830186613f8f565b614b6c60c0830185613f8f565b614b7960e0830184614043565b9998505050505050505050565b600060208284031215614b9c57614b9b613eb1565b5b600082013567ffffffffffffffff811115614bba57614bb9613eb6565b5b614bc684828501614513565b91505092915050565b600081519050919050565b600082825260208201905092915050565b6000819050602082019050919050565b614c0481613f19565b82525050565b614c1381614037565b82525050565b600082825260208201905092915050565b6000614c3582613f9e565b614c3f8185614c19565b9350614c4f818560208601613fba565b614c5881613fed565b840191505092915050565b600061010083016000830151614c7c6000860182614bfb565b506020830151614c8f6020860182614c0a565b506040830151614ca26040860182614c0a565b506060830151614cb56060860182614bfb565b5060808301518482036080860152614ccd8282614c2a565b91505060a0830151614ce260a0860182614bfb565b5060c0830151614cf560c0860182614bfb565b5060e0830151614d0860e0860182614c0a565b508091505092915050565b6000614d1f8383614c63565b905092915050565b6000602082019050919050565b6000614d3f82614bcf565b614d498185614bda565b935083602082028501614d5b85614beb565b8060005b85811015614d975784840389528151614d788582614d13565b9450614d8383614d27565b925060208a01995050600181019050614d5f565b50829750879550505050505092915050565b60006020820190508181036000830152614dc38184614d34565b905092915050565b60008060408385031215614de257614de1613eb1565b5b6000614df085828601613f3a565b9250506020614e0185828601613f3a565b9150509250929050565b6000604082019050614e2060008301856148a8565b614e2d6020830184613f8f565b9392505050565b600080600080600080600060e0888a031215614e5357614e52613eb1565b5b6000614e618a828b01613f3a565b975050602088013567ffffffffffffffff811115614e8257614e81613eb6565b5b614e8e8a828b016142c1565b965050604088013567ffffffffffffffff811115614eaf57614eae613eb6565b5b614ebb8a828b016142c1565b9550506060614ecc8a828b01613f3a565b9450506080614edd8a828b01613f3a565b93505060a0614eee8a828b01613f3a565b92505060c0614eff8a828b01613f3a565b91505092959891949750929550565b600081519050919050565b600082825260208201905092915050565b6000819050602082019050919050565b600060c083016000830151614f526000860182614bfb565b5060208301518482036020860152614f6a8282614c2a565b91505060408301518482036040860152614f848282614c2a565b91505060608301518482036060860152614f9e8282614c2a565b91505060808301518482036080860152614fb88282614c2a565b91505060a0830151614fcd60a0860182614c0a565b508091505092915050565b6000614fe48383614f3a565b905092915050565b6000602082019050919050565b600061500482614f0e565b61500e8185614f19565b93508360208202850161502085614f2a565b8060005b8581101561505c578484038952815161503d8582614fd8565b945061504883614fec565b925060208a01995050600181019050615024565b50829750879550505050505092915050565b600060208201905081810360008301526150888184614ff9565b905092915050565b600081519050919050565b600082825260208201905092915050565b6000819050602082019050919050565b600060e0830160008301516150d46000860182614bfb565b50602083015184820360208601526150ec8282614c2a565b915050604083015184820360408601526151068282614c2a565b915050606083015161511b6060860182614bfb565b50608083015161512e6080860182614bfb565b5060a083015161514160a0860182614c0a565b5060c083015161515460c0860182614bfb565b508091505092915050565b600061516b83836150bc565b905092915050565b6000602082019050919050565b600061518b82615090565b615195818561509b565b9350836020820285016151a7856150ac565b8060005b858110156151e357848403895281516151c4858261515f565b94506151cf83615173565b925060208a019950506001810190506151ab565b50829750879550505050505092915050565b6000602082019050818103600083015261520f8184615180565b905092915050565b7f4e487b7100000000000000000000000000000000000000000000000000000000600052602260045260246000fd5b6000600282049050600182168061525e57607f821691505b60208210810361527157615270615217565b5b50919050565b7f4e487b7100000000000000000000000000000000000000000000000000000000600052603260045260246000fd5b7f616c6c72656164792077697468647265772066756e6473000000000000000000600082015250565b60006152dc601783613fa9565b91506152e7826152a6565b602082019050919050565b6000602082019050818103600083015261530b816152cf565b9050919050565b7f4e487b7100000000000000000000000000000000000000000000000000000000600052601160045260246000fd5b600061534c82613f19565b91507fffffffffffffffffffffffffffffffffffffffffffffffffffffffffffffffff820361537e5761537d615312565b5b600182019050919050565b600061539482613f19565b915061539f83613f19565b9250827fffffffffffffffffffffffffffffffffffffffffffffffffffffffffffffffff038211156153d4576153d3615312565b5b828201905092915050565b60006153ea82613f19565b9150600082036153fd576153fc615312565b5b600182039050919050565b600081905092915050565b50565b6000615423600083615408565b915061542e82615413565b600082019050919050565b600061544482615416565b9150819050919050565b60006080820190506154636000830187613f8f565b6154706020830186613f8f565b61547d6040830185613f8f565b61548a60608301846148a8565b95945050505050565b7f6661696c656420746f2073656e64206574686572000000000000000000000000600082015250565b60006154c9601483613fa9565b91506154d482615493565b602082019050919050565b600060208201905081810360008301526154f8816154bc565b9050919050565b7f6f6e6c792074686520636f6e7472616374206f776e6572000000000000000000600082015250565b6000615535601783613fa9565b9150615540826154ff565b602082019050919050565b6000602082019050818103600083015261556481615528565b905091905056fea264697066735822122011c61d867b2a5c7ea29dcb72d10e04d96445d90d697485026272fd6c8f8ec5b764736f6c634300080d0033",
  "immutableReferences": {},
  "source": "// SPDX-License-Identifier: MIT\r\n\r\npragma solidity >=0.5.0 < 0.9.0;\r\n\r\nimport \"@openzeppelin/contracts/utils/math/SafeMath.sol\";\r\n\r\ncontract Operations {\r\n\r\n    using SafeMath for uint256;\r\n    struct EventGame {\r\n        uint eventId;\r\n        string homeTeam;\r\n        string awayTeam;\r\n        uint homeGoals;\r\n        uint awayGoals;\r\n        uint dateTime;\r\n        uint matchFinished;\r\n    }\r\n\r\n    struct miniBets {\r\n        uint matchId;\r\n        string teamNames;\r\n        string category;\r\n        string pick;\r\n        string outcome;\r\n        bool won;\r\n    }\r\n\r\n    struct NormalBet{\r\n        uint betId;\r\n        bool betFinished;\r\n        bool betWon;\r\n        uint deposit;\r\n        string totalOdds;\r\n        uint possiblePayout;\r\n        uint timestamp; \r\n        bool withdrawn;       \r\n    }\r\n\r\n    struct SpinAndWin{\r\n        uint betId;\r\n        string betResult;\r\n        string gamingOdds;\r\n        uint possiblePayout;\r\n        uint deposit;\r\n        bool withdrawn;\r\n        uint timestamp;\r\n    }\r\n    \r\n    struct Customer {\r\n        address customerAccountId;\r\n        string name;\r\n        // SpinAndWin[] spins2;\r\n    }\r\n\r\n    struct ActiveBets{\r\n        address accountId;\r\n        uint betId;\r\n    }\r\n\r\n    address contractOwner;\r\n\r\n\r\n     constructor() public payable{\r\n        contractOwner = msg.sender;\r\n    }\r\n\r\n    uint public spinAndWinCount;\r\n    uint public betCount;\r\n    uint public activeBetsCount;\r\n\r\n    mapping(address => Customer) public customers;\r\n    mapping(address => SpinAndWin[]) public arraySpins;\r\n    mapping(address => mapping(uint => miniBets[])) public normalbets;\r\n    mapping(address => NormalBet[]) public justTrackBets;\r\n    mapping(uint => EventGame) public eventGames;\r\n    mapping(uint => EventGame[]) public nextVirtualGame;\r\n    mapping(uint => ActiveBets) public activeBets;\r\n\r\n    event PlaceBet(uint betId, uint deposit, uint timestamp, address customer);\r\n    event wonSpin(uint betId, uint deposit, uint timestamp, address customer);\r\n\r\n    \r\n\r\n    function registerEventGame(uint _eventId, string memory _homeTeam, string memory _awayTeam, uint _homeGoals, uint _awayGoals, uint _dateTime, uint _matchFinished) public{\r\n        eventGames[_eventId] = (EventGame(_eventId, _homeTeam, _awayTeam, _homeGoals, _awayGoals, _dateTime, _matchFinished));\r\n    }\r\n\r\n    function registerNextVirtualGame(EventGame[] memory _eventGames,uint _time)public{\r\n        for(uint i = 0; i < _eventGames.length; i++){\r\n            nextVirtualGame[_time].push(EventGame(_eventGames[i].eventId, _eventGames[i].homeTeam, _eventGames[i].awayTeam, _eventGames[i].homeGoals, _eventGames[i].awayGoals, _eventGames[i].dateTime, _eventGames[i].matchFinished));\r\n        }\r\n    }\r\n\r\n\r\n    \r\n    function registerMultipleEventGames(EventGame[] memory _eventGames) public {\r\n        for(uint i = 0; i < _eventGames.length; i++){\r\n            eventGames[_eventGames[i].eventId] = EventGame(_eventGames[i].eventId, _eventGames[i].homeTeam, _eventGames[i].awayTeam, _eventGames[i].homeGoals, _eventGames[i].awayGoals, _eventGames[i].dateTime, _eventGames[i].matchFinished);\r\n        }\r\n    }\r\n\r\n    // mapping(address => NormalBet)\r\n\r\n    function registerCustomer(string memory _name) public{\r\n        address _customerAccountId = msg.sender;\r\n        customers[_customerAccountId] = Customer(_customerAccountId, _name);        \r\n    }\r\n\r\n    function placeNormalBet(miniBets[] memory minibet, uint _deposit, string memory _totalOdds, uint _possiblePayout) public payable returns(string memory){\r\n        betCount++;\r\nstring memory outcome = \"pending\";\r\n        address accountId = msg.sender;\r\n        address payable contractAddress = payable(address(this));\r\n        (bool sent, bytes memory data) = contractAddress.call{value: msg.value}(\"\");\r\n        for(uint i = 0; i < minibet.length; i++){\r\n            normalbets[accountId][betCount].push(miniBets(minibet[i].matchId,minibet[i].teamNames,minibet[i].category, minibet[i].pick, outcome , false));     \r\n        }     \r\n        justTrackBets[accountId].push(NormalBet(betCount, false, false, _deposit, _totalOdds, _possiblePayout, block.timestamp, false));\r\n        activeBetsCount++;\r\n        activeBets[activeBetsCount] = ActiveBets(msg.sender, betCount);\r\n        emit PlaceBet(betCount, _deposit, block.timestamp, msg.sender);\r\n        return \"bet successfully\";\r\n    }\r\n\r\n    function viewNormalBets(address _accountId,uint _betId) public view returns(miniBets[] memory){\r\n        return normalbets[_accountId][_betId];\r\n    }\r\n\r\n    function viewTrackedBets(address _accountId) public view returns(NormalBet[] memory){\r\n        return justTrackBets[_accountId];\r\n    }\r\n\r\n\r\n    function compareBets(string memory a, string memory b) public pure returns (bool) {\r\n            return keccak256(bytes(a)) == keccak256(bytes(b));\r\n    }\r\n    function verifyWon(address _accountId, uint _betId) public {\r\n        uint l = normalbets[_accountId][_betId].length;\r\n        uint trackedBetsLengthForActiveBets = normalbets[_accountId][_betId].length;\r\n        uint counterLosses;\r\n    // mapping(uint => EventGame) => public eventGames;\r\n\r\n        for(uint i = 0; i < l && eventGames[normalbets[_accountId][_betId][i].matchId].matchFinished == 1; i++){\r\n            uint gameId = eventGames[normalbets[_accountId][_betId][i].matchId].eventId;\r\n            uint homeGoals = eventGames[normalbets[_accountId][_betId][i].matchId].homeGoals;\r\n            uint awayGoals = eventGames[normalbets[_accountId][_betId][i].matchId].awayGoals;\r\n            string memory FTresult;\r\n            string memory category = normalbets[_accountId][_betId][i].category;\r\n\r\n            if(compareBets(category, \"1X2\") == true && eventGames[normalbets[_accountId][_betId][i].matchId].matchFinished == 1){\r\n                if(homeGoals > awayGoals){\r\n                FTresult = \"1\";\r\n                }else if(awayGoals > homeGoals){\r\n                    FTresult = \"2\";\r\n                }else{\r\n                    FTresult = \"X\";\r\n                }\r\n            }else if(compareBets(category, \"GG/NG\") == true && eventGames[normalbets[_accountId][_betId][i].matchId].matchFinished == 1){\r\n                if(homeGoals > 0 && awayGoals > 0){\r\n                    FTresult = \"GG\";\r\n                }else if(homeGoals > 0 && awayGoals == 0){\r\n                    FTresult = \"NG\";\r\n                }else if(homeGoals == 0 && awayGoals > 0){\r\n                    FTresult = \"NG\";\r\n                }else if(homeGoals == 0 && awayGoals == 0){\r\n                    FTresult = \"NG\";\r\n                }\r\n            }else if(compareBets(category, \"OV/UN\") == true && eventGames[normalbets[_accountId][_betId][i].matchId].matchFinished == 1){\r\n                uint totalGoals = homeGoals + awayGoals;\r\n                if(totalGoals >= 3 ){\r\n                    FTresult = \"OV25\";\r\n                }else{\r\n                    FTresult = \"UN25\";\r\n                }\r\n            }\r\n            \r\n            \r\n            normalbets[_accountId][_betId][i].outcome = FTresult;\r\n            \r\n            if(compareBets(normalbets[_accountId][_betId][i].outcome, normalbets[_accountId][_betId][i].pick) == true && eventGames[normalbets[_accountId][_betId][i].matchId].matchFinished == 1){\r\n            normalbets[_accountId][_betId][i].won = true;\r\n            }else if(compareBets(normalbets[_accountId][_betId][i].outcome, normalbets[_accountId][_betId][i].pick) == false && eventGames[normalbets[_accountId][_betId][i].matchId].matchFinished == 1){\r\n                normalbets[_accountId][_betId][i].won = false;\r\n                counterLosses++;\r\n            }\r\n            trackedBetsLengthForActiveBets--;\r\n        }\r\n            \r\n        uint trackedBetsLength = viewTrackedBets(_accountId).length;\r\n        for(uint i = 0; i < trackedBetsLength && trackedBetsLengthForActiveBets == 0; i++){\r\n            if(justTrackBets[_accountId][i].betId == _betId){\r\n                if(counterLosses  < 1){\r\n        \r\n                    justTrackBets[_accountId][i].betFinished = true;\r\n                    justTrackBets[_accountId][i].betWon = true;\r\n                    delete activeBets[_betId];\r\n                    activeBetsCount--;\r\n                }\r\n            }\r\n        }\r\n\r\n        for(uint i = 0; i < trackedBetsLength; i++){\r\n            if(justTrackBets[_accountId][i].betId == _betId){\r\n                if(counterLosses > 0){\r\n                    justTrackBets[_accountId][i].betFinished = true;\r\n                    justTrackBets[_accountId][i].betWon = false;\r\n                    delete activeBets[_betId];\r\n                    activeBetsCount--;\r\n                }     \r\n            }     \r\n        }\r\n    }\r\n\r\n    // this function allows you to stake and stores your stake data regardless of a win or a lose\r\n    function stakeSpinAndWin(string memory _betResult, string memory _gamingOdds, uint256 _deposit, uint _winnings) public payable returns(string memory){\r\n         spinAndWinCount++;\r\n        address payable contractAddress = payable(address(this));\r\n        (bool sent, bytes memory data) = contractAddress.call{value: _deposit}(\"\");\r\n        require(sent, \"failed to send ether\");\r\n        uint256 possible_payout = _winnings;\r\n        arraySpins[msg.sender].push(SpinAndWin({betId: spinAndWinCount, betResult: _betResult, gamingOdds: _gamingOdds, possiblePayout: _winnings, deposit: _deposit, withdrawn: false, timestamp: block.timestamp}));\r\n        if(_winnings > 0){\r\n            return \"bet won\";\r\n        }else{\r\n            return \"bet lost\";\r\n        }\r\n\r\n        emit wonSpin(spinAndWinCount, msg.value, block.timestamp, msg.sender);\r\n    }\r\n\r\n    // this function allows you to get your array spins according your account\r\n    function getArraySpins(address _accountId)public view returns(SpinAndWin[] memory){\r\n        return arraySpins[_accountId];\r\n    }\r\n\r\n    // this function allows you to witdraw your funds provided you have won\r\n    function withdrawArraySpinFunds(uint _betId) external {\r\n         address payable accountId = payable(msg.sender);\r\n         uint length =  arraySpins[msg.sender].length;\r\n         for(uint i = 0; i < length; i++){\r\n            if(arraySpins[msg.sender][i].betId == _betId){\r\n             require(arraySpins[msg.sender][i].withdrawn == false, \"allready withdrew funds\");\r\n            accountId.transfer(arraySpins[msg.sender][i].possiblePayout);\r\n            arraySpins[msg.sender][i].withdrawn = true;\r\n            }\r\n         }\r\n         \r\n    }\r\n\r\n    function withdrawWinnings(uint _betId) external {\r\n        address payable accountId = payable(msg.sender);\r\n        uint length = justTrackBets[msg.sender].length;\r\n        for(uint i = 0; i < length; i++){\r\n            if(justTrackBets[msg.sender][i].betId == _betId){\r\n            require(justTrackBets[msg.sender][i].withdrawn == false, \"allready withdrew funds\");\r\n            accountId.transfer(justTrackBets[msg.sender][i].possiblePayout);\r\n            justTrackBets[msg.sender][i].withdrawn = true;\r\n            }\r\n         }\r\n    } \r\n   \r\n\r\n    function sendEther(address payable _recipient) external {\r\n        require(msg.sender == contractOwner, \"only the contract owner\");\r\n        _recipient.transfer(1 ether);\r\n    }\r\n\r\n    receive() external payable{}\r\n    fallback() external payable{}\r\n\r\n    function getBalance() public view returns (uint) {\r\n        return address(this).balance;\r\n    }\r\n}\r\n\r\n",
  "sourcePath": "C:\\Users\\Felabs\\Desktop\\web3\\contracts\\Operations.sol",
  "compiler": {
    "name": "solc",
    "version": "0.8.13+commit.abaa5c0e.Emscripten.clang"
  },
  "schemaVersion": "3.4.13",
  "updatedAt": "2023-05-25T23:31:37.247Z",
  "networkType": "ethereum",
  "devdoc": {
    "kind": "dev",
    "methods": {},
    "version": 1
  },
  "userdoc": {
    "kind": "user",
    "methods": {},
    "version": 1
  }
}