{
  "contractName": "RealEstate",
  "abi": [
    {
      "anonymous": false,
      "inputs": [
        {
          "indexed": false,
          "internalType": "uint256",
          "name": "propertyId",
          "type": "uint256"
        },
        {
          "indexed": false,
          "internalType": "string",
          "name": "location",
          "type": "string"
        },
        {
          "indexed": false,
          "internalType": "uint256",
          "name": "price",
          "type": "uint256"
        },
        {
          "indexed": false,
          "internalType": "address",
          "name": "owner",
          "type": "address"
        }
      ],
      "name": "NewProperty",
      "type": "event"
    },
    {
      "anonymous": false,
      "inputs": [
        {
          "indexed": false,
          "internalType": "uint256",
          "name": "propertyId",
          "type": "uint256"
        },
        {
          "indexed": false,
          "internalType": "address",
          "name": "previousOwner",
          "type": "address"
        },
        {
          "indexed": false,
          "internalType": "address",
          "name": "newOwner",
          "type": "address"
        }
      ],
      "name": "TransferProperty",
      "type": "event"
    },
    {
      "inputs": [
        {
          "internalType": "uint256",
          "name": "",
          "type": "uint256"
        }
      ],
      "name": "properties",
      "outputs": [
        {
          "internalType": "string",
          "name": "location",
          "type": "string"
        },
        {
          "internalType": "uint256",
          "name": "price",
          "type": "uint256"
        },
        {
          "internalType": "address",
          "name": "owner",
          "type": "address"
        },
        {
          "internalType": "bool",
          "name": "isForSale",
          "type": "bool"
        }
      ],
      "stateMutability": "view",
      "type": "function"
    },
    {
      "inputs": [],
      "name": "propertyCounter",
      "outputs": [
        {
          "internalType": "uint256",
          "name": "",
          "type": "uint256"
        }
      ],
      "stateMutability": "view",
      "type": "function"
    },
    {
      "inputs": [
        {
          "internalType": "string",
          "name": "_location",
          "type": "string"
        },
        {
          "internalType": "uint256",
          "name": "_price",
          "type": "uint256"
        }
      ],
      "name": "addProperty",
      "outputs": [],
      "stateMutability": "nonpayable",
      "type": "function"
    },
    {
      "inputs": [
        {
          "internalType": "uint256",
          "name": "_propertyId",
          "type": "uint256"
        }
      ],
      "name": "buyProperty",
      "outputs": [],
      "stateMutability": "payable",
      "type": "function"
    }
  ],
  "bytecode": "0x608060405234801561001057600080fd5b50610d58806100206000396000f3fe60806040526004361061003f5760003560e01c80636fa830a614610044578063d090e47e14610060578063f54e1aef1461008b578063f7b10808146100b4575b600080fd5b61005e60048036038101906100599190610742565b6100f4565b005b34801561006c57600080fd5b50610075610430565b604051610082919061077e565b60405180910390f35b34801561009757600080fd5b506100b260048036038101906100ad91906108df565b610436565b005b3480156100c057600080fd5b506100db60048036038101906100d69190610742565b610570565b6040516100eb9493929190610a1f565b60405180910390f35b600080600083815260200190815260200160002060405180608001604052908160008201805461012390610a9a565b80601f016020809104026020016040519081016040528092919081815260200182805461014f90610a9a565b801561019c5780601f106101715761010080835404028352916020019161019c565b820191906000526020600020905b81548152906001019060200180831161017f57829003601f168201915b50505050508152602001600182015481526020016002820160009054906101000a900473ffffffffffffffffffffffffffffffffffffffff1673ffffffffffffffffffffffffffffffffffffffff1673ffffffffffffffffffffffffffffffffffffffff1681526020016002820160149054906101000a900460ff161515151581525050905060011515816060015115151461026d576040517f08c379a000000000000000000000000000000000000000000000000000000000815260040161026490610b17565b60405180910390fd5b806020015134146102b3576040517f08c379a00000000000000000000000000000000000000000000000000000000081526004016102aa90610ba9565b60405180910390fd5b60008160400151905033826040019073ffffffffffffffffffffffffffffffffffffffff16908173ffffffffffffffffffffffffffffffffffffffff16815250506000826060019015159081151581525050816000808581526020019081526020016000206000820151816000019080519060200190610334929190610655565b506020820151816001015560408201518160020160006101000a81548173ffffffffffffffffffffffffffffffffffffffff021916908373ffffffffffffffffffffffffffffffffffffffff16021790555060608201518160020160146101000a81548160ff0219169083151502179055509050508073ffffffffffffffffffffffffffffffffffffffff166108fc349081150290604051600060405180830381858888f193505050501580156103ef573d6000803e3d6000fd5b507f2b6558ef830032550a63336b01af1ffc1237f803cf24e0d3f632b65b1f3a252183823360405161042393929190610c28565b60405180910390a1505050565b60015481565b6001600081548092919061044990610c8e565b919050555060405180608001604052808381526020018281526020013373ffffffffffffffffffffffffffffffffffffffff16815260200160011515815250600080600154815260200190815260200160002060008201518160000190805190602001906104b8929190610655565b506020820151816001015560408201518160020160006101000a81548173ffffffffffffffffffffffffffffffffffffffff021916908373ffffffffffffffffffffffffffffffffffffffff16021790555060608201518160020160146101000a81548160ff0219169083151502179055509050507fea21a40ba2b0d33c0d2d4517c396137e5bc0182e8857e048b9a4c007aea0822f6001548383336040516105649493929190610cd6565b60405180910390a15050565b600060205280600052604060002060009150905080600001805461059390610a9a565b80601f01602080910402602001604051908101604052809291908181526020018280546105bf90610a9a565b801561060c5780601f106105e15761010080835404028352916020019161060c565b820191906000526020600020905b8154815290600101906020018083116105ef57829003601f168201915b5050505050908060010154908060020160009054906101000a900473ffffffffffffffffffffffffffffffffffffffff16908060020160149054906101000a900460ff16905084565b82805461066190610a9a565b90600052602060002090601f01602090048101928261068357600085556106ca565b82601f1061069c57805160ff19168380011785556106ca565b828001600101855582156106ca579182015b828111156106c95782518255916020019190600101906106ae565b5b5090506106d791906106db565b5090565b5b808211156106f45760008160009055506001016106dc565b5090565b6000604051905090565b600080fd5b600080fd5b6000819050919050565b61071f8161070c565b811461072a57600080fd5b50565b60008135905061073c81610716565b92915050565b60006020828403121561075857610757610702565b5b60006107668482850161072d565b91505092915050565b6107788161070c565b82525050565b6000602082019050610793600083018461076f565b92915050565b600080fd5b600080fd5b6000601f19601f8301169050919050565b7f4e487b7100000000000000000000000000000000000000000000000000000000600052604160045260246000fd5b6107ec826107a3565b810181811067ffffffffffffffff8211171561080b5761080a6107b4565b5b80604052505050565b600061081e6106f8565b905061082a82826107e3565b919050565b600067ffffffffffffffff82111561084a576108496107b4565b5b610853826107a3565b9050602081019050919050565b82818337600083830152505050565b600061088261087d8461082f565b610814565b90508281526020810184848401111561089e5761089d61079e565b5b6108a9848285610860565b509392505050565b600082601f8301126108c6576108c5610799565b5b81356108d684826020860161086f565b91505092915050565b600080604083850312156108f6576108f5610702565b5b600083013567ffffffffffffffff81111561091457610913610707565b5b610920858286016108b1565b92505060206109318582860161072d565b9150509250929050565b600081519050919050565b600082825260208201905092915050565b60005b8381101561097557808201518184015260208101905061095a565b83811115610984576000848401525b50505050565b60006109958261093b565b61099f8185610946565b93506109af818560208601610957565b6109b8816107a3565b840191505092915050565b600073ffffffffffffffffffffffffffffffffffffffff82169050919050565b60006109ee826109c3565b9050919050565b6109fe816109e3565b82525050565b60008115159050919050565b610a1981610a04565b82525050565b60006080820190508181036000830152610a39818761098a565b9050610a48602083018661076f565b610a5560408301856109f5565b610a626060830184610a10565b95945050505050565b7f4e487b7100000000000000000000000000000000000000000000000000000000600052602260045260246000fd5b60006002820490506001821680610ab257607f821691505b602082108103610ac557610ac4610a6b565b5b50919050565b7f546869732070726f7065727479206973206e6f7420666f722073616c652e0000600082015250565b6000610b01601e83610946565b9150610b0c82610acb565b602082019050919050565b60006020820190508181036000830152610b3081610af4565b9050919050565b7f596f75206e65656420746f20706179207468652066756c6c207072696365206f60008201527f66207468652070726f70657274792e0000000000000000000000000000000000602082015250565b6000610b93602f83610946565b9150610b9e82610b37565b604082019050919050565b60006020820190508181036000830152610bc281610b86565b9050919050565b6000819050919050565b6000610bee610be9610be4846109c3565b610bc9565b6109c3565b9050919050565b6000610c0082610bd3565b9050919050565b6000610c1282610bf5565b9050919050565b610c2281610c07565b82525050565b6000606082019050610c3d600083018661076f565b610c4a6020830185610c19565b610c5760408301846109f5565b949350505050565b7f4e487b7100000000000000000000000000000000000000000000000000000000600052601160045260246000fd5b6000610c998261070c565b91507fffffffffffffffffffffffffffffffffffffffffffffffffffffffffffffffff8203610ccb57610cca610c5f565b5b600182019050919050565b6000608082019050610ceb600083018761076f565b8181036020830152610cfd818661098a565b9050610d0c604083018561076f565b610d1960608301846109f5565b9594505050505056fea2646970667358221220d4bccaca12f4f401d27564d1493ea2b26163d7f0d916e08d6aebb792cf56999064736f6c634300080d0033",
  "immutableReferences": {},
  "source": "pragma solidity ^0.8.0;\r\n\r\ncontract RealEstate {\r\n    \r\n    struct Property {\r\n        string location;\r\n        uint256 price;\r\n        address owner;\r\n        bool isForSale;\r\n    }\r\n    \r\n    mapping (uint256 => Property) public properties;\r\n    uint256 public propertyCounter;\r\n    \r\n    event NewProperty(uint256 propertyId, string location, uint256 price, address owner);\r\n    event TransferProperty(uint256 propertyId, address previousOwner, address newOwner);\r\n    \r\n    function addProperty(string memory _location, uint256 _price) public {\r\n        propertyCounter++;\r\n        properties[propertyCounter] = Property(_location, _price, msg.sender, true);\r\n        emit NewProperty(propertyCounter, _location, _price, msg.sender);\r\n    }\r\n    \r\n    function buyProperty(uint256 _propertyId) public payable {\r\n        Property memory property = properties[_propertyId];\r\n        require(property.isForSale == true, \"This property is not for sale.\");\r\n        require(msg.value == property.price, \"You need to pay the full price of the property.\");\r\n        address payable previousOwner = payable(property.owner);\r\n        property.owner = msg.sender;\r\n        property.isForSale = false;\r\n        properties[_propertyId] = property;\r\n        previousOwner.transfer(msg.value);\r\n        emit TransferProperty(_propertyId, previousOwner, msg.sender);\r\n    }\r\n    \r\n}\r\n",
  "sourcePath": "C:\\Users\\Felabs\\Desktop\\web3\\contracts\\realestate.sol",
  "compiler": {
    "name": "solc",
    "version": "0.8.13+commit.abaa5c0e.Emscripten.clang"
  },
  "schemaVersion": "3.4.13",
  "updatedAt": "2023-05-25T23:29:23.423Z",
  "devdoc": {
    "kind": "dev",
    "methods": {},
    "version": 1
  },
  "userdoc": {
    "kind": "user",
    "methods": {},
    "version": 1
  }
}