{
  "contractName": "Register",
  "abi": [
    {
      "inputs": [
        {
          "internalType": "uint256",
          "name": "initialPrice",
          "type": "uint256"
        }
      ],
      "stateMutability": "nonpayable",
      "type": "constructor"
    },
    {
      "inputs": [],
      "name": "register",
      "outputs": [],
      "stateMutability": "payable",
      "type": "function"
    },
    {
      "inputs": [
        {
          "internalType": "uint256",
          "name": "_price",
          "type": "uint256"
        }
      ],
      "name": "changePrice",
      "outputs": [],
      "stateMutability": "nonpayable",
      "type": "function"
    }
  ],
  "bytecode": "0x608060405234801561001057600080fd5b506040516102bc3803806102bc833981810160405281019061003291906100ba565b336000806101000a81548173ffffffffffffffffffffffffffffffffffffffff021916908373ffffffffffffffffffffffffffffffffffffffff16021790555080600281905550506100e7565b600080fd5b6000819050919050565b61009781610084565b81146100a257600080fd5b50565b6000815190506100b48161008e565b92915050565b6000602082840312156100d0576100cf61007f565b5b60006100de848285016100a5565b91505092915050565b6101c6806100f66000396000f3fe6080604052600436106100295760003560e01c80631aa3a0081461002e578063a2b40d1914610038575b600080fd5b610036610061565b005b34801561004457600080fd5b5061005f600480360381019061005a9190610163565b6100c6565b005b6002548034106100c35760018060003373ffffffffffffffffffffffffffffffffffffffff1673ffffffffffffffffffffffffffffffffffffffff16815260200190815260200160002060006101000a81548160ff0219169083151502179055505b50565b60008054906101000a900473ffffffffffffffffffffffffffffffffffffffff1673ffffffffffffffffffffffffffffffffffffffff163373ffffffffffffffffffffffffffffffffffffffff161461011e57600080fd5b8060028190555050565b600080fd5b6000819050919050565b6101408161012d565b811461014b57600080fd5b50565b60008135905061015d81610137565b92915050565b60006020828403121561017957610178610128565b5b60006101878482850161014e565b9150509291505056fea2646970667358221220fde2b5302a520e108b0e092d53ff36e64d4a7e791a4955299f15a04a2ee8188164736f6c634300080d0033",
  "immutableReferences": {},
  "source": "pragma solidity >=0.4.22 < 0.9.0;\r\n\r\ncontract Owner{\r\n    address owner;\r\n    constructor() public {\r\n        owner = msg.sender;\r\n    }\r\n\r\n    modifier onlyOwner {\r\n        require(msg.sender == owner);\r\n        _;\r\n    }\r\n\r\n    modifier costs(uint price){\r\n        if(msg.value >= price){\r\n            _;\r\n        }\r\n    }\r\n}\r\n\r\n\r\ncontract Register is Owner {\r\n    mapping(address =>  bool) registeredAddresses;\r\n    uint price;\r\n    constructor(uint initialPrice) public {\r\n        price = initialPrice;\r\n    }\r\n\r\n    function register() public payable costs(price) {\r\n        registeredAddresses[msg.sender] = true;\r\n    }\r\n\r\n    function changePrice(uint _price) public onlyOwner {\r\n        price = _price;\r\n    }\r\n}",
  "sourcePath": "C:\\Users\\Felabs\\Desktop\\web3\\contracts\\Mapping.sol",
  "compiler": {
    "name": "solc",
    "version": "0.8.13+commit.abaa5c0e.Emscripten.clang"
  },
  "schemaVersion": "3.4.13",
  "updatedAt": "2023-05-25T23:29:23.331Z",
  "devdoc": {
    "kind": "dev",
    "methods": {},
    "version": 1
  },
  "userdoc": {
    "kind": "user",
    "methods": {},
    "version": 1
  }
}