{
  "contractName": "sendingEther",
  "abi": [
    {
      "inputs": [
        {
          "internalType": "address payable",
          "name": "_to",
          "type": "address"
        }
      ],
      "name": "sendViaTransfer",
      "outputs": [],
      "stateMutability": "payable",
      "type": "function",
      "payable": true
    }
  ],
  "bytecode": "0x608060405234801561001057600080fd5b50610283806100206000396000f3fe60806040526004361061001e5760003560e01c8063636e082b14610023575b600080fd5b61003d6004803603810190610038919061015d565b61003f565b005b6000808273ffffffffffffffffffffffffffffffffffffffff16670de0b6b3a764000060405161006e906101bb565b60006040518083038185875af1925050503d80600081146100ab576040519150601f19603f3d011682016040523d82523d6000602084013e6100b0565b606091505b5091509150816100f5576040517f08c379a00000000000000000000000000000000000000000000000000000000081526004016100ec9061022d565b60405180910390fd5b505050565b600080fd5b600073ffffffffffffffffffffffffffffffffffffffff82169050919050565b600061012a826100ff565b9050919050565b61013a8161011f565b811461014557600080fd5b50565b60008135905061015781610131565b92915050565b600060208284031215610173576101726100fa565b5b600061018184828501610148565b91505092915050565b600081905092915050565b50565b60006101a560008361018a565b91506101b082610195565b600082019050919050565b60006101c682610198565b9150819050919050565b600082825260208201905092915050565b7f6661696c656420746f2073656e64206574686572000000000000000000000000600082015250565b60006102176014836101d0565b9150610222826101e1565b602082019050919050565b600060208201905081810360008301526102468161020a565b905091905056fea26469706673582212208c795873aa4a4b0662ff14c09d44975f6b4afd841313cea082c609fedd44eeaf64736f6c634300080d0033",
  "immutableReferences": {},
  "source": "pragma solidity >=0.5.0 < 0.9.0;\r\n\r\ncontract Operations {\r\n    \r\n    constructor() public payable{\r\n        \r\n    }\r\n\r\n    function sendEther(address payable _recipient) external {\r\n        _recipient.transfer(1 ether);\r\n    }\r\n\r\n    receive() external payable{}\r\n    fallback() external payable{}\r\n\r\n    function getBalance() public view returns (uint) {\r\n        return address(this).balance;\r\n    }\r\n}\r\n\r\ncontract sendingEther{\r\n    function sendViaTransfer(address payable _to) public payable{\r\n        (bool sent, bytes memory data) = _to.call{value: 1000000000000000000}(\"\");\r\n        require(sent, \"failed to send ether\");\r\n    }\r\n}",
  "sourcePath": "C:\\Users\\Felabs\\Desktop\\web3\\contracts\\Operations.sol",
  "compiler": {
    "name": "solc",
    "version": "0.8.13+commit.abaa5c0e.Emscripten.clang"
  },
  "schemaVersion": "3.4.13",
  "updatedAt": "2023-05-10T20:18:51.642Z",
  "networkType": "ethereum",
  "devdoc": {
    "kind": "dev",
    "methods": {},
    "version": 1
  },
  "userdoc": {
    "kind": "user",
    "methods": {},
    "version": 1
  }
}