{
  "contractName": "TicketingSystem",
  "abi": [
    {
      "anonymous": false,
      "inputs": [
        {
          "indexed": false,
          "internalType": "uint256",
          "name": "ticketId",
          "type": "uint256"
        },
        {
          "indexed": false,
          "internalType": "address",
          "name": "buyer",
          "type": "address"
        }
      ],
      "name": "TicketPurchased",
      "type": "event"
    },
    {
      "inputs": [
        {
          "internalType": "uint256",
          "name": "",
          "type": "uint256"
        }
      ],
      "name": "tickets",
      "outputs": [
        {
          "internalType": "address payable",
          "name": "owner",
          "type": "address"
        },
        {
          "internalType": "uint256",
          "name": "price",
          "type": "uint256"
        },
        {
          "internalType": "bool",
          "name": "isAvailable",
          "type": "bool"
        }
      ],
      "stateMutability": "view",
      "type": "function"
    },
    {
      "inputs": [
        {
          "internalType": "uint256",
          "name": "_ticketId",
          "type": "uint256"
        },
        {
          "internalType": "uint256",
          "name": "_price",
          "type": "uint256"
        }
      ],
      "name": "createTicket",
      "outputs": [],
      "stateMutability": "nonpayable",
      "type": "function"
    },
    {
      "inputs": [
        {
          "internalType": "uint256",
          "name": "_ticketId",
          "type": "uint256"
        }
      ],
      "name": "purchaseTicket",
      "outputs": [],
      "stateMutability": "payable",
      "type": "function"
    },
    {
      "inputs": [
        {
          "internalType": "uint256",
          "name": "_ticketId",
          "type": "uint256"
        }
      ],
      "name": "checkTicketOwner",
      "outputs": [
        {
          "internalType": "bool",
          "name": "",
          "type": "bool"
        }
      ],
      "stateMutability": "view",
      "type": "function"
    },
    {
      "inputs": [
        {
          "internalType": "uint256",
          "name": "_ticketId",
          "type": "uint256"
        },
        {
          "internalType": "address",
          "name": "_newOwner",
          "type": "address"
        }
      ],
      "name": "transferTicket",
      "outputs": [],
      "stateMutability": "nonpayable",
      "type": "function"
    }
  ],
  "bytecode": "0x608060405234801561001057600080fd5b5061093f806100206000396000f3fe60806040526004361061004a5760003560e01c806350b447121461004f578063640023571461008e578063679ebf1a146100b7578063b948348c146100e0578063dc4c0a12146100fc575b600080fd5b34801561005b57600080fd5b50610076600480360381019061007191906105ae565b610139565b60405161008593929190610646565b60405180910390f35b34801561009a57600080fd5b506100b560048036038101906100b0919061067d565b610190565b005b3480156100c357600080fd5b506100de60048036038101906100d991906106fb565b61024e565b005b6100fa60048036038101906100f591906105ae565b61038f565b005b34801561010857600080fd5b50610123600480360381019061011e91906105ae565b610501565b604051610130919061073b565b60405180910390f35b60006020528060005260406000206000915090508060000160009054906101000a900473ffffffffffffffffffffffffffffffffffffffff16908060010154908060020160009054906101000a900460ff16905083565b60405180606001604052803373ffffffffffffffffffffffffffffffffffffffff1681526020018281526020016001151581525060008084815260200190815260200160002060008201518160000160006101000a81548173ffffffffffffffffffffffffffffffffffffffff021916908373ffffffffffffffffffffffffffffffffffffffff1602179055506020820151816001015560408201518160020160006101000a81548160ff0219169083151502179055509050505050565b600080600084815260200190815260200160002090508060000160009054906101000a900473ffffffffffffffffffffffffffffffffffffffff1673ffffffffffffffffffffffffffffffffffffffff163373ffffffffffffffffffffffffffffffffffffffff16146102f6576040517f08c379a00000000000000000000000000000000000000000000000000000000081526004016102ed906107d9565b60405180910390fd5b8060020160009054906101000a900460ff16610347576040517f08c379a000000000000000000000000000000000000000000000000000000000815260040161033e90610845565b60405180910390fd5b818160000160006101000a81548173ffffffffffffffffffffffffffffffffffffffff021916908373ffffffffffffffffffffffffffffffffffffffff160217905550505050565b60008060008381526020019081526020016000209050806001015434146103eb576040517f08c379a00000000000000000000000000000000000000000000000000000000081526004016103e2906108b1565b60405180910390fd5b8060020160009054906101000a900460ff1661043c576040517f08c379a000000000000000000000000000000000000000000000000000000000815260040161043390610845565b60405180910390fd5b8060000160009054906101000a900473ffffffffffffffffffffffffffffffffffffffff1673ffffffffffffffffffffffffffffffffffffffff166108fc349081150290604051600060405180830381858888f193505050501580156104a6573d6000803e3d6000fd5b5060008160020160006101000a81548160ff0219169083151502179055507f785f2865353ae960010300f584fc6c577b757a853af69a99c769df3c8232d3de82336040516104f59291906108e0565b60405180910390a15050565b60008060008084815260200190815260200160002090508060000160009054906101000a900473ffffffffffffffffffffffffffffffffffffffff1673ffffffffffffffffffffffffffffffffffffffff163373ffffffffffffffffffffffffffffffffffffffff1614915050919050565b600080fd5b6000819050919050565b61058b81610578565b811461059657600080fd5b50565b6000813590506105a881610582565b92915050565b6000602082840312156105c4576105c3610573565b5b60006105d284828501610599565b91505092915050565b600073ffffffffffffffffffffffffffffffffffffffff82169050919050565b6000610606826105db565b9050919050565b610616816105fb565b82525050565b61062581610578565b82525050565b60008115159050919050565b6106408161062b565b82525050565b600060608201905061065b600083018661060d565b610668602083018561061c565b6106756040830184610637565b949350505050565b6000806040838503121561069457610693610573565b5b60006106a285828601610599565b92505060206106b385828601610599565b9150509250929050565b60006106c8826105db565b9050919050565b6106d8816106bd565b81146106e357600080fd5b50565b6000813590506106f5816106cf565b92915050565b6000806040838503121561071257610711610573565b5b600061072085828601610599565b9250506020610731858286016106e6565b9150509250929050565b60006020820190506107506000830184610637565b92915050565b600082825260208201905092915050565b7f4f6e6c7920746865206f776e65722063616e207472616e73666572207468652060008201527f7469636b65740000000000000000000000000000000000000000000000000000602082015250565b60006107c3602683610756565b91506107ce82610767565b604082019050919050565b600060208201905081810360008301526107f2816107b6565b9050919050565b7f5469636b6574206973206e6f7420617661696c61626c65000000000000000000600082015250565b600061082f601783610756565b915061083a826107f9565b602082019050919050565b6000602082019050818103600083015261085e81610822565b9050919050565b7f496e636f7272656374207061796d656e7420616d6f756e740000000000000000600082015250565b600061089b601883610756565b91506108a682610865565b602082019050919050565b600060208201905081810360008301526108ca8161088e565b9050919050565b6108da816106bd565b82525050565b60006040820190506108f5600083018561061c565b61090260208301846108d1565b939250505056fea2646970667358221220bc269baddc6fda547e7b7e8287445efc1f315be002de9d58ccbe468301efb5b864736f6c634300080d0033",
  "immutableReferences": {},
  "source": "pragma solidity ^0.8.0;\r\n\r\n// Define a contract for the ticketing system\r\ncontract TicketingSystem {\r\n    \r\n    // Define a struct to hold ticket information\r\n    struct Ticket {\r\n        address payable owner;\r\n        uint256 price;\r\n        bool isAvailable;\r\n    }\r\n    \r\n    // Define a mapping of ticket IDs to ticket information\r\n    mapping (uint256 => Ticket) public tickets;\r\n    \r\n    // Define an event to track ticket purchases\r\n    event TicketPurchased(uint256 ticketId, address buyer);\r\n    \r\n    // Define a function to create new tickets\r\n    function createTicket(uint256 _ticketId, uint256 _price) public {\r\n        tickets[_ticketId] = Ticket(payable(msg.sender), _price, true);\r\n    }\r\n    \r\n    // Define a function to purchase a ticket\r\n    function purchaseTicket(uint256 _ticketId) public payable {\r\n        Ticket storage ticket = tickets[_ticketId];\r\n        require(msg.value == ticket.price, \"Incorrect payment amount\");\r\n        require(ticket.isAvailable, \"Ticket is not available\");\r\n        ticket.owner.transfer(msg.value);\r\n        ticket.isAvailable = false;\r\n        emit TicketPurchased(_ticketId, msg.sender);\r\n    }\r\n    \r\n    // Define a function to check ticket ownership\r\n    function checkTicketOwner(uint256 _ticketId) public view returns (bool) {\r\n        Ticket storage ticket = tickets[_ticketId];\r\n        return (msg.sender == ticket.owner);\r\n    }\r\n    \r\n    // Define a function to transfer ticket ownership\r\n    function transferTicket(uint256 _ticketId, address _newOwner) public {\r\n        Ticket storage ticket = tickets[_ticketId];\r\n        require(msg.sender == ticket.owner, \"Only the owner can transfer the ticket\");\r\n        require(ticket.isAvailable, \"Ticket is not available\");\r\n        ticket.owner = payable(_newOwner);\r\n    }\r\n}\r\n",
  "sourcePath": "C:\\Users\\Felabs\\Desktop\\web3\\contracts\\event.sol",
  "compiler": {
    "name": "solc",
    "version": "0.8.13+commit.abaa5c0e.Emscripten.clang"
  },
  "schemaVersion": "3.4.13",
  "updatedAt": "2023-05-25T23:29:23.415Z",
  "devdoc": {
    "kind": "dev",
    "methods": {},
    "version": 1
  },
  "userdoc": {
    "kind": "user",
    "methods": {},
    "version": 1
  }
}