{
  "contractName": "TruffleTutorial",
  "abi": [
    {
      "inputs": [],
      "stateMutability": "nonpayable",
      "type": "constructor"
    },
    {
      "inputs": [],
      "name": "setNums",
      "outputs": [
        {
          "internalType": "uint256",
          "name": "",
          "type": "uint256"
        }
      ],
      "stateMutability": "view",
      "type": "function"
    }
  ],
  "bytecode": "0x608060405234801561001057600080fd5b50610171806100206000396000f3fe608060405234801561001057600080fd5b506004361061002b5760003560e01c806373abfecf14610030575b600080fd5b61003861004e565b604051610045919061009b565b60405180910390f35b600080602c9050600060599050610065828261006c565b9250505090565b6000818361007a91906100e5565b905092915050565b6000819050919050565b61009581610082565b82525050565b60006020820190506100b0600083018461008c565b92915050565b7f4e487b7100000000000000000000000000000000000000000000000000000000600052601160045260246000fd5b60006100f082610082565b91506100fb83610082565b9250827fffffffffffffffffffffffffffffffffffffffffffffffffffffffffffffffff038211156101305761012f6100b6565b5b82820190509291505056fea264697066735822122014bb215e1ba4a2ff025ccfbc4c7c3b05653f1b8de7c3846fc37e06719015496b64736f6c634300080d0033",
  "immutableReferences": {},
  "source": "pragma solidity >=0.4.22 < 0.9.0;\r\n\r\ncontract TruffleTutorial {\r\n    \r\n    constructor() public{\r\n\r\n    }\r\n\r\n\r\n\r\n    function setNums() public view returns (uint){\r\n        uint _l = 44;\r\n        uint _w = 89;\r\n        return add(_l, _w);\r\n    }\r\n\r\n    function add(uint _l, uint _w) internal pure returns (uint){\r\n        return _l + _w;\r\n    }\r\n\r\n    \r\n}",
  "sourcePath": "C:\\Users\\Felabs\\Desktop\\web3\\contracts\\TruffleTutorial.sol",
  "compiler": {
    "name": "solc",
    "version": "0.8.13+commit.abaa5c0e.Emscripten.clang"
  },
  "schemaVersion": "3.4.13",
  "updatedAt": "2023-05-25T23:29:23.390Z",
  "devdoc": {
    "kind": "dev",
    "methods": {},
    "version": 1
  },
  "userdoc": {
    "kind": "user",
    "methods": {},
    "version": 1
  }
}