{
  "contractName": "Updater",
  "abi": [
    {
      "inputs": [],
      "name": "updateBalance",
      "outputs": [
        {
          "internalType": "uint256",
          "name": "",
          "type": "uint256"
        }
      ],
      "stateMutability": "nonpayable",
      "type": "function"
    }
  ],
  "bytecode": "0x608060405234801561001057600080fd5b50610551806100206000396000f3fe608060405234801561001057600080fd5b506004361061002b5760003560e01c8063a9559dd714610030575b600080fd5b61003861004e565b604051610045919061018e565b60405180910390f35b60008060405161005d90610168565b604051809103906000f080158015610079573d6000803e3d6000fd5b5090508073ffffffffffffffffffffffffffffffffffffffff1663ba7b37d4600a6040518263ffffffff1660e01b81526004016100b691906101ee565b600060405180830381600087803b1580156100d057600080fd5b505af11580156100e4573d6000803e3d6000fd5b505050508073ffffffffffffffffffffffffffffffffffffffff166327e235e3306040518263ffffffff1660e01b8152600401610121919061024a565b602060405180830381865afa15801561013e573d6000803e3d6000fd5b505050506040513d601f19601f820116820180604052508101906101629190610296565b91505090565b610258806102c483390190565b6000819050919050565b61018881610175565b82525050565b60006020820190506101a3600083018461017f565b92915050565b6000819050919050565b6000819050919050565b60006101d86101d36101ce846101a9565b6101b3565b610175565b9050919050565b6101e8816101bd565b82525050565b600060208201905061020360008301846101df565b92915050565b600073ffffffffffffffffffffffffffffffffffffffff82169050919050565b600061023482610209565b9050919050565b61024481610229565b82525050565b600060208201905061025f600083018461023b565b92915050565b600080fd5b61027381610175565b811461027e57600080fd5b50565b6000815190506102908161026a565b92915050565b6000602082840312156102ac576102ab610265565b5b60006102ba84828501610281565b9150509291505056fe608060405234801561001057600080fd5b50610238806100206000396000f3fe608060405234801561001057600080fd5b50600436106100365760003560e01c806327e235e31461003b578063ba7b37d41461006b575b600080fd5b61005560048036038101906100509190610148565b610087565b604051610062919061018e565b60405180910390f35b610085600480360381019061008091906101d5565b61009f565b005b60006020528060005260406000206000915090505481565b806000803373ffffffffffffffffffffffffffffffffffffffff1673ffffffffffffffffffffffffffffffffffffffff1681526020019081526020016000208190555050565b600080fd5b600073ffffffffffffffffffffffffffffffffffffffff82169050919050565b6000610115826100ea565b9050919050565b6101258161010a565b811461013057600080fd5b50565b6000813590506101428161011c565b92915050565b60006020828403121561015e5761015d6100e5565b5b600061016c84828501610133565b91505092915050565b6000819050919050565b61018881610175565b82525050565b60006020820190506101a3600083018461017f565b92915050565b6101b281610175565b81146101bd57600080fd5b50565b6000813590506101cf816101a9565b92915050565b6000602082840312156101eb576101ea6100e5565b5b60006101f9848285016101c0565b9150509291505056fea2646970667358221220ec30a65843cd18ff035a93ce81e27ac68c5f78215f320cd885acf052a608b30764736f6c634300080d0033a2646970667358221220754971bb1bfe3c0cf53b766d460b0c7c20a680a73e0d7fb7eadbab10580f257864736f6c634300080d0033",
  "immutableReferences": {},
  "source": "pragma solidity >=0.4.22 < 0.9.0;\r\n\r\ncontract LedgerBalance {\r\n    mapping (address => uint) public balances;\r\n\r\n    function updateBalance(uint newBalance) public {\r\n        balances[msg.sender] = newBalance;\r\n    }\r\n}\r\n\r\ncontract Updater {\r\n    function updateBalance() public returns(uint){\r\n        LedgerBalance ledgerBalance = new LedgerBalance();\r\n        ledgerBalance.updateBalance(10);\r\n        return ledgerBalance.balances(address(this));\r\n    }\r\n}\r\n",
  "sourcePath": "C:\\Users\\Felabs\\Desktop\\web3\\contracts\\Mapping.sol",
  "compiler": {
    "name": "solc",
    "version": "0.8.13+commit.abaa5c0e.Emscripten.clang"
  },
  "schemaVersion": "3.4.13",
  "updatedAt": "2023-04-01T13:21:29.837Z",
  "networkType": "ethereum",
  "devdoc": {
    "kind": "dev",
    "methods": {},
    "version": 1
  },
  "userdoc": {
    "kind": "user",
    "methods": {},
    "version": 1
  }
}