{
  "contractName": "Operations",
  "abi": [
    {
      "inputs": [],
      "name": "area",
      "outputs": [
        {
          "internalType": "uint256",
          "name": "",
          "type": "uint256"
        }
      ],
      "stateMutability": "view",
      "type": "function",
      "constant": true
    },
    {
      "inputs": [
        {
          "internalType": "uint256",
          "name": "_len",
          "type": "uint256"
        },
        {
          "internalType": "uint256",
          "name": "_wid",
          "type": "uint256"
        }
      ],
      "name": "addNums",
      "outputs": [],
      "stateMutability": "nonpayable",
      "type": "function"
    },
    {
      "inputs": [],
      "name": "getArea",
      "outputs": [
        {
          "internalType": "uint256",
          "name": "",
          "type": "uint256"
        }
      ],
      "stateMutability": "view",
      "type": "function",
      "constant": true
    }
  ],
  "bytecode": "0x608060405234801561001057600080fd5b50610227806100206000396000f3fe608060405234801561001057600080fd5b50600436106100415760003560e01c806321d34af4146100465780634d41892f1461006257806385be3e6214610080575b600080fd5b610060600480360381019061005b91906100fe565b61009e565b005b61006a6100b4565b604051610077919061014d565b60405180910390f35b6100886100ba565b604051610095919061014d565b60405180910390f35b80826100aa9190610197565b6000819055505050565b60005481565b60008054905090565b600080fd5b6000819050919050565b6100db816100c8565b81146100e657600080fd5b50565b6000813590506100f8816100d2565b92915050565b60008060408385031215610115576101146100c3565b5b6000610123858286016100e9565b9250506020610134858286016100e9565b9150509250929050565b610147816100c8565b82525050565b6000602082019050610162600083018461013e565b92915050565b7f4e487b7100000000000000000000000000000000000000000000000000000000600052601160045260246000fd5b60006101a2826100c8565b91506101ad836100c8565b9250817fffffffffffffffffffffffffffffffffffffffffffffffffffffffffffffffff04831182151516156101e6576101e5610168565b5b82820290509291505056fea264697066735822122074a5d124b02123c2c26759f82d775d0b752dbb896b42d79dadd1281d16ae0a4f64736f6c634300080d0033",
  "immutableReferences": {},
  "source": "pragma solidity >=0.5.0 < 0.9.0;\r\n\r\ncontract Operations {\r\n\r\n    uint public area;\r\n\r\n    function addNums(uint _len, uint _wid) public{\r\n        area = _len * _wid;\r\n    }\r\n\r\n    function getArea() public view returns(uint) {\r\n        return area;\r\n    }\r\n}",
  "sourcePath": "C:\\Users\\Felabs\\Desktop\\web3\\contracts\\Operations.sol",
  "compiler": {
    "name": "solc",
    "version": "0.8.13+commit.abaa5c0e.Emscripten.clang"
  },
  "schemaVersion": "3.4.13",
  "updatedAt": "2023-04-02T10:42:54.508Z",
  "networkType": "ethereum",
  "devdoc": {
    "kind": "dev",
    "methods": {},
    "version": 1
  },
  "userdoc": {
    "kind": "user",
    "methods": {},
    "version": 1
  }
}